:020000040800F2
:10000000280400209D010008890F0008F70300085C
:10001000850F0008E5010008CD1100080000000070
:10002000000000000000000000000000ED0F0008CC
:10003000E9010008000000008B0F0008DD10000837
:10004000B7010008B7010008B7010008B7010008B0
:10005000B7010008B7010008B7010008B7010008A0
:10006000B7010008B7010008B7010008B701000890
:10007000B7010008B7010008B7010008B701000880
:10008000B7010008B7010008B7010008B701000870
:10009000B7010008B7010008B7010008B701000860
:1000A000B7010008B7010008B7010008B701000850
:1000B000B7010008B7010008B7010008B701000840
:1000C000B7010008B7010008B7010008B701000830
:1000D000B7010008B7010008B7010008B701000820
:1000E000B7010008B7010008B7010008B701000810
:1000F000B7010008B7010008B7010008B701000800
:10010000B7010008B7010008B7010008B7010008EF
:10011000B7010008B7010008B7010008B7010008DF
:10012000B7010008B7010008B7010008B7010008CF
:10013000B7010008B7010008B7010008B7010008BF
:10014000B7010008B7010008B7010008B7010008AF
:10015000B7010008B7010008B7010008B70100089F
:10016000B7010008B7010008B7010008B70100088F
:10017000B7010008B7010008B7010008B70100087F
:10018000B7010008B7010008DFF80CD000F018F83C
:100190000048004705120008280400200648804750
:1001A00006480047FEE7FEE7FEE7FEE7FEE7FEE75C
:1001B000FEE7FEE7FEE7FEE74D11000889010008B3
:1001C000064C074D06E0E06840F0010394E80700A4
:1001D00098471034AC42F6D3FFF7DAFFB441040875
:1001E000D441040800BFFEE77047000051B182000F
:1001F000A2F1C042126842F001038200A2F1C042A3
:10020000136009E08200A2F1C0421268034B1A4059
:100210008300A3F1C0431A6070470000FEFF0F0087
:10022000D0E901121143C2681143026911434269C6
:10023000114382691143C2691143026A1143426A40
:100240001143826A1143C26A1143026B114302686F
:100250009200A2F1C0421160816808290BD10168A7
:100260008900A1F1C041096841F04002016889009C
:10027000A1F1C0410A60416B0968426B526841EAD2
:100280000211426B926841EA0221426B928941EA73
:100290000241426B128A41EA0251426B127D41EAED
:1002A0000261426B926911430268521C9200A2F1F2
:1002B000C0421160C16AB1F5804F1BD1816B0968E2
:1002C000826B526841EA0211826B926841EA022114
:1002D000826B128A41EA0251826B127D41EA02610D
:1002E000826B9269114302689200A2F1C042C2F887
:1002F000041107E06FF0704201688900A1F1C0416C
:10030000C1F804217047F0B50A46002100230024FB
:1003100000BF3DE0012505FA01F3156805EA030475
:100320009C4234D105684F000326BE40B5430560AA
:1003300015794E00B5400668354305601579012DE5
:1003400002D01579022D16D185684F000326BE40D4
:10035000B543856055794E00B54086683543856064
:10036000456801268E40B5434560456896798E40C4
:10037000B6B235434560C5684F000326BE40B5435D
:10038000C560D5794E00B540C6683543C560491C87
:100390001029BFD3F0BDF0B5002300244D07ED0EAA
:1003A00002FA05F3CE1000F1200555F826504E074D
:1003B000F70E0F26BE40B543CF1000F1200646F8D9
:1003C0002750CE1000F1200555F8265045EA0304C9
:1003D000CE1000F1200545F82640F0BD0246002071
:1003E00013690B400BB1012000E0002070474183EE
:1003F00070470183704700BFFEE700001CB5012174
:10040000022000F0C3FD0121880300F0DFFD002081
:100410008DF8040001208DF8070004200090694643
:100420001F48FFF770FF0121084600F0AFFD0121D2
:10043000880300F0CBFD00208DF8040001208DF82A
:100440000700009069461748FFF75DFF012104206F
:1004500000F09CFD0121880300F0B8FD00208DF81C
:10046000040001208DF807000520009069460E4821
:10047000FFF749FF0121102000F088FD01218803CA
:1004800000F0A4FD00208DF8040001208DF8070085
:100490001020009069460548FFF735FF1CBD00009D
:1004A0000004024000000240000802400010024028
:1004B00070B5044600260948058840884543002158
:1004C000084600F03DFB00F0D1FC00BF02E004480C
:1004D0000480761CAE42FAD370BD000018000020E4
:1004E0000010006C10B504467CB90020104908715A
:1004F0002C20C8802B2008812A2048814FF4887046
:1005000008804FF4F07048800EE00120084908711F
:100510002C20C8802A2008812B2048814FF4F070BD
:1005200008804FF488704880002000F093FA10BDD6
:10053000180000202DE9FF4F84B081468A46002034
:10054000029083460698A0EB09050798A0EB0A06DF
:10055000CDF80490CDF800A0002D01DD012705E0C5
:100560000DB9002702E04FF0FF376D42002E02DD8B
:100570004FF0010806E016B94FF0000802E04FF016
:10058000FF387642B54201DD2C4600E034460020BB
:1005900003901EE0009A91B2019A90B2119A00F075
:1005A0001FF8029828440290B3440298A04205DD47
:1005B0000298001B0290019838440190A34504DD85
:1005C000ABEB040B0098404400900398401C80B2B1
:1005D0000390611C03988842DCDD08B0BDE8F08F11
:1005E00070B505460E4614463146284600F0A8FA76
:1005F00000F03CFC0148048070BD00000010006C5D
:100600002DE9F84105460E4617469846079C3346A5
:100610003A46314628460094FFF78CFF43462A4667
:10062000314628460094FFF785FF43463A46414647
:1006300028460094FFF77EFF43463A463146384647
:100640000094FFF777FFBDE8F881000010B503467E
:100650000C461748007920B915480088401EC01A7A
:1006600083B21349088900F0FBFB181200F0F2FB7B
:10067000D8B200F0EFFB181200F0ECFBD8B200F09B
:10068000E9FB0B49488900F0EBFB201200F0E2FB8C
:10069000E0B200F0DFFB201200F0DCFBE0B200F083
:1006A000D9FB0348C08803490880881C028010BD1C
:1006B00018000020FE0F006C00B5A1B000202090B3
:1006C0000121782000F062FC0121084600F06EFC58
:1006D0004CF233701E9002208DF87C0000208DF8C3
:1006E0007E0003208DF87D0001208DF87F001EA97B
:1006F000D548FFF708FE4FF680701E9002208DF857
:100700007C0000208DF87E0003208DF87D00012004
:100710008DF87F001EA9CD48FFF7F5FD02201E9041
:100720008DF87C0000208DF87E0003208DF87D0080
:1007300001208DF87F001EA9C548FFF7E4FD4FF4A6
:1007400080501E9002208DF87C0000208DF87E00E5
:1007500003208DF87D0001208DF87F001EA9BC4884
:10076000FFF7D1FD0C220021B748FFF714FE0C2241
:100770000121B548FFF70FFE0C220421B248FFF714
:100780000AFE0C220521B048FFF705FE0C220821C5
:10079000AD48FFF700FE0C220921AB48FFF7FBFD37
:1007A0000C220A21A848FFF7F6FD0C220E21A648CC
:1007B000FFF7F1FD0C220F21A348FFF7ECFD0C22FF
:1007C0000721A248FFF7E7FD0C2208219F48FFF709
:1007D000E2FD0C2209219D48FFF7DDFD0C220A21D4
:1007E0009A48FFF7D8FD0C220B219848FFF7D3FD5C
:1007F0000C2211469548FFF7CEFD0C220D2193489F
:10080000FFF7C9FD0C220E219048FFF7C4FD0C2212
:100810000F218E48FFF7BFFD0C2201218C48FFF706
:10082000BAFD0C2211468A48FFF7B5FD0F2008904B
:10083000002009903C200A9000200B900C900D9015
:100840000E900920019000200290082003900020C3
:10085000049005900690079006200F9000201090BD
:100860001190102012900020139015901490169063
:1008700017904FF480501890002019904FF480404A
:100880001A9000201B9008A81C9001A81D900FA88A
:10089000FFF7C6FC01210620FFF7A8FC642000F04A
:1008A000F7FA2B2000F0DCFA002000F0D3FA0A203F
:1008B00000F000FBE22000F0D3FA1D2000F0CAFA9D
:1008C000022000F0C7FA042000F0C4FA642000F00F
:1008D000F1FAE02000F0C4FA012000F0BBFA0A208F
:1008E00000F0D6FAE02000F0BBFA032000F0B2FAE4
:1008F0000C2000F0CDFA012000F0B2FA0A2000F03E
:10090000C7FAE62000F0ACFA002000F0A3FAD920E4
:1009100000F0A0FA162000F09DFAB02000F0A0FA36
:10092000202000F097FA002000F094FA012000F057
:1009300091FA40F2DF1000F08DFA012000F08AFAFF
:1009400040F20F1000F086FA002000F083FAB42085
:1009500000F086FA022000F07DFA40F2122000F04A
:1009600079FA002000F076FA2B2000F073FA0A20C2
:1009700000F070FA002000F06DFA002000F06AFA32
:10098000002000F067FAB62000F06AFA012000F0BB
:1009900061FA40F21F1000F05DFA002000F05AFAF0
:1009A0000C2000F057FA0A2000F054FA002000F062
:1009B00051FA042000F04EFABA2000F051FA052056
:1009C00000F048FAB82000F04BFA072000F042FA95
:1009D000012000F03FFAF02000F042FA032000F07E
:1009E00039FA292000F03CFAD02000F039FA0D2025
:1009F00000F030FABE2000F033FA062000F02AFAA8
:100A0000802000F027FA012000F024FAF02000F006
:100A100021FA002000F01EFA002000F01BFAB82096
:100A200000F01EFA032000F015FA012000F012FA7F
:100A3000292000F015FA0120FFF754FD4FF6FF7052
:100A4000FFF736FD21B000BD000C0240001002404F
:100A50000018024030B504460023002537480079CD
:100A6000C0B9082C15D2DFE804F00406080A0C0E01
:100A7000101206240DE007240BE0042409E00524ED
:100A800007E0012405E0002403E0032401E0022440
:100A900000BF00BF082C1CD2DFE804F00406090CDC
:100AA0000F12151800BF14E043F0800311E043F06B
:100AB00040030EE043F0C0030BE043F0200308E0E6
:100AC00043F0600305E043F0A00302E043F0E003DD
:100AD00000BF00BF36251946284600F0D1F9174956
:100AE000088900F0BDF9002000F0B4F9002000F002
:100AF000B1F912490988491EC1F30F2000F0AAF983
:100B00000E490978491EC8B200F0A4F90B4948897A
:100B100000F0A6F9002000F09DF9002000F09AF9FD
:100B200006494988491EC1F30F2000F093F9034993
:100B30008978491EC8B200F08DF930BD1800002038
:100B400000B502460B4624480079A8B9224800881F
:100B5000401E801A82B22049088900F081F90020E5
:100B600000F078F9002000F075F9101200F072F929
:100B7000D0B200F06FF916E01749088900F070F95B
:100B8000101200F067F9D0B200F064F91249098838
:100B9000491EC1F30F2000F05DF90F490978491E85
:100BA000C8B200F057F90C49488900F059F91812F9
:100BB00000F050F9D8B200F04DF907494988491EB4
:100BC000C1F30F2000F046F903498978491EC8B2E5
:100BD00000F040F900BD0000180000202DE9F84F9A
:100BE00080460E4617461C46B3462046E31704EBE4
:100BF0005373DB1021464FEAE47C04EB5C7C4FEA44
:100C0000EC0CA4EBCC0CBCF1000F02D04FF0010CAB
:100C100001E04FF0000C6344224604EBD27C4FEA23
:100C20006C0C03FB0CF3DBB20093A7F12000C7B2FE
:100C3000002552E00C2C07D107EB4700294901EBB6
:100C4000800010F8059013E0102C05D1264800EB29
:100C5000071010F805900BE0182C07D107EBC70020
:100C6000224901EB800010F8059001E0BDE8F88F03
:100C70004FF0000A2BE009F0800028B131464046D1
:100C80000A9AFFF7E3FC04E0314640460B9AFFF76F
:100C9000DDFC4FEA49604FEA1069701C86B21448C7
:100CA0004088B04200DCE1E7A6EB0B00A0420AD18D
:100CB0005E4608F101001FFA80F80D4800884045A3
:100CC00000DCD3E706E00AF1010000F0FF0ABAF108
:100CD000080FD0DB00BF681CC5B200988542A9DBB5
:100CE00000BFC3E7F4290408682E04085834040838
:100CF000180000202DE9FC4305460C4616461F4609
:100D0000DDF824904FF010080E480088A84203DA5E
:100D1000002504EB080084B20A484088A04206DAA5
:100D20000020054604464FF6FF70FFF7C1FBCDE9F2
:100D300000793278434621462846FFF74FFFBDE849
:100D4000FC830000180000202DE9F04F8BB0064610
:100D50000F4690469A464FF0000900BF00BF98F832
:100D60000000029098F8010001900198A0F1A10103
:100D70000298A138C0EB001202EB401001EB4000DA
:100D80004FEA401B1E4858440090002406E00BEB3D
:100D900004001B49085C03A90855641C202CF6DBE1
:100DA000002428E003A810F814904FF6FF7000EA22
:100DB00009296000401C03A9085C40EA09090025D4
:100DC00016E0C5F10F0049FA00F000F0010038B15B
:100DD0003A1991B2721990B25246FFF701FC06E03F
:100DE0003A1991B2721990B2149AFFF7F9FB6D1C7F
:100DF000102DE6DB641C102CD4DB0BB0BDE8F08FAB
:100E0000941400082DE9F84105460F46144698460B
:100E1000079E19E02078A1280BDD4346224639467B
:100E200028460096FFF790FFA41C05F1100085B23C
:100E30000AE043462246394628460096FFF75AFF05
:100E4000641C05F1080085B220780028E2D1BDE8D5
:100E5000F881000001490880704700000010006C14
:100E60000149088070470000FE0F006C0248C088EE
:100E7000024908807047000018000020FE0F006C37
:100E8000024A1080921C118070470000FE0F006C17
:100E900008B50AE00021009102E00099491C009188
:100EA00044F6206200999142F7D3011EA0F101009F
:100EB000F0D108BD002106E0082100BF0A1EA1F103
:100EC000010399B2FAD1021EA0F10100F4D17047DA
:100ED0001CB50121022000F059F8402000900120AB
:100EE0008DF8040000208DF8060003208DF8050021
:100EF00000208DF8070069461F48FFF704FA01211A
:100F0000084600F043F85020009001208DF80400BE
:100F100000208DF8060003208DF8050000208DF8D4
:100F2000070069461548FFF7EEF90121042000F09B
:100F30002DF84020009001208DF8040000208DF84D
:100F4000060003208DF8050000208DF80700694693
:100F50000B48FFF7D8F940210748FFF74AFA10215C
:100F60000648FFF746FA40210448FFF742FA4021BD
:100F70000348FFF73EFA1CBD000402400000024097
:100F80000008024000BFFEE77047704729B1064ADB
:100F900012680243044B1A6004E0034A1268824359
:100FA000014B1A60704700003038024029B1064AF0
:100FB00012680243044B1A6004E0034A1268824339
:100FC000014B1A60704700003838024029B1064AC8
:100FD00012680243044B1A6004E0034A1268824319
:100FE000014B1A607047000044380240704700000F
:100FF0000CB50020019000903448006840F4803027
:101000003249086000BF3148006800F400300090A9
:101010000198401C0190009818B90198B0F5A06F94
:10102000F1D12A48006800F4003010B1012000908E
:1010300001E0002000900098012846D1234840306C
:10104000006840F080502149403108602048006825
:1010500040F480401E4908601C48083000681B4965
:10106000083108600846006840F4004008600846FF
:10107000006840F4A05008601648091F0860081F67
:10108000006840F08070091F086000BF0F480068CA
:1010900000F000700028F9D040F205600E490860A9
:1010A0000A480830006820F0030008490831086049
:1010B0000846006840F00200086000BF034808309E
:1010C000006800F00C000828F8D10CBD0038024080
:1010D0000070004019544007003C024010B500F079
:1010E00069F810BD30B5164800684FF47A72B0FB4D
:1010F000F2F1B1F1807F01D301201DE021F07F40AA
:10110000401E4FF0E022506150170F22002807DAEE
:1011100013071D0E0B4B00F00F04241F1D5503E099
:1011200013071C0E084B1C5400BF00204FF0E02298
:10113000906107201061002008B100BFFEE730BDBC
:101140000000002018ED00E000E400E010B51548B4
:10115000006840F47000134908601348006840F0CC
:1011600001001149086000200F49083108600E484D
:1011700000680E4908400C4908600D48091D0860C8
:10118000081F006820F48020091F0860002006491D
:101190000C310860FFF72CFF4FF0006001498039E7
:1011A000086010BD88ED00E000380240FFFFF6FE49
:1011B000103000240448006820B103480068401E35
:1011C00001490860704700001400002000BFFEE7DE
:1011D00002E008C8121F08C1002AFAD17047704700
:1011E000002001E001C1121F002AFBD1704700005E
:1011F0000349086000BF024909680029FBD1704714
:101200001400002008B5FFF76DFFFFF755FA002026
:10121000FFF74EF94FF4FC6040F20F1340F2DF127B
:10122000002100900846FFF7EBF94FF4FC604FF403
:1012300085734FF4ED72052100900846FFF7E0F941
:1012400000204FF478435AA2014600909620FFF701
:10125000D9FD00204FF6FF735CA21E210090AA204A
:10126000FFF7D0FD00204FF478435DA23C210090B1
:101270000A20FFF7C7FD00204FF4784363A26421E2
:1012800000900A20FFF7BEFD00204FF4784361A2D2
:10129000782100900A20FFF7B5FD00204FF4784335
:1012A00061A28C2100900A20FFF7ACFD00204FF4D2
:1012B000784362A2A02100900A20FFF7A3FD00203E
:1012C0004FF4784362A2B42100900A20FFF79AFD00
:1012D00000204FF4784363A2C82100900A20FFF752
:1012E00091FDFFF78BF8FFF7F3FD60E004216548FF
:1012F000FFF774F858B90A20FFF77AFF0421614814
:10130000FFF76CF818B940215E48FFF770F801212B
:101310005D48FFF763F858B90A20FFF769FF01211C
:101320005948FFF75BF818B910215748FFF75FF8E5
:1013300004215648FFF752F858B90A20FFF758FF22
:1013400004215248FFF74AF818B940214E48FFF7E8
:101350004EF801214D48FFF741F858B90A20FFF730
:1013600047FF01214948FFF739F818B9402147489C
:10137000FFF73DF810214648FFF730F8B8B90A20CA
:10138000FFF736FF10214248FFF728F878B94021CF
:101390003C48FFF72EF810213B48FFF72AF8402180
:1013A0003948FFF726F840213848FFF722F89DE733
:1013B0002D2D53544D33324634303720CAB5D1E940
:1013C000BFAAB7A2C6BDCCA82D2D000020BACBD095
:1013D000C4B0E5B0B4BCFCB2E2CAD4200000000046
:1013E000D3C9D3DA494FBFDAB8B4D3C3A3ACCBF96E
:1013F000D2D4C7EBB4F2BFAACBF9D3D0C4A3BFE910
:10140000B5C4B5E7D4B4BFAAB9D80000CFD6CFF3DE
:10141000A3BA0000312EB0B4CFC25331B5E3C1C17D
:101420004C45443100000000322EB0B4CFC25332DC
:10143000B5E3C1C14C45443200000000332EB0B4C6
:10144000CFC25333B5E3C1C14C4544330000000063
:10145000342EB0B4CFC25334B5E3C1C14C4544348B
:1014600000000000352EB0B4CFC25335CFA8C3F072
:101470004C454431204C454432204C454433204CAB
:1014800045443400000402400000024000080240CD
:1014900000100240000000000000000000000000FA
:1014A000000000000000000000000000000000003C
:1014B000000000000000000000000000000000002C
:1014C0000000000000000000200018000C000C00CC
:1014D000000000000000000000000000000000000C
:1014E000000000000000000000003000480048003C
:1014F00030000000000000000000000000000000BC
:1015000000000180018000000000000000000000D9
:1015100000000000000000000000000000000000CB
:10152000000007F0000000000000000000000000C4
:101530000000000000000000000000001004100483
:10154000080808080410041002200220014001C00D
:10155000008000000000000000000000000000000B
:1015600000000C300C300000000000000000000003
:101570000000000000000000000001100110033016
:101580000330066004400440088008801100110008
:1015900000000000000001000380030006080FFCAB
:1015A0000C1810300030026001C000C000E00040A4
:1015B000000000000000000000000000000000002B
:1015C00000007FFE0000000000000000000000009E
:1015D000000000000000000000000000000000000B
:1015E0000E003F8061C300FE0038000000000000D4
:1015F00000000000000002400240024002400240A1
:1016000002400240024002400240024002400240CA
:101610000240000000000000000000000000000088
:101620000000318C318C0000000000000000000040
:101630000000000000000000000800100030003032
:10164000000000000000000000000000000000009A
:1016500000000000000000000C000C00080010005A
:10166000000000000000000000000000000000007A
:1016700000000000000000000022004400CC00CC6C
:10168000000000000000000000000000000000005A
:10169000000000000000000033003300220044007E
:1016A000000000000000000000000000000000003A
:1016B000000000000000000C003800600040004006
:1016C0000040004000400040004000400060003802
:1016D000000C0000000018000E00030001000100D3
:1016E00001000100010001000100010003000E00E3
:1016F0001800000000000000000000400080010011
:101700000200040008000400020001000080004004
:101710000000000000000000020001000080004006
:1017200000200010002000400080010002000000A6
:1017300000000000000000000000024002400480A1
:101740000480090009000480048002400240000077
:1017500000000000000000000000024002400120E4
:101760000120009000900120012002400240000072
:10177000000000000000000001F001000100010075
:101780000100010001000100010001000100010051
:101790000000000000000000008000800080008049
:1017A00000800080008000800080008000800F802A
:1017B000000000000000000003F8020802F80280A8
:1017C0000280028002800280028002800280038008
:1017D00000000000000000000070005000500050A9
:1017E0000050005000500050005000501FD010100A
:1017F0001FF00000000000000FF0082008400880E3
:1018000008800900090008800880084008200FF0BF
:10181000000000000000000007F80208010800882E
:10182000008800480048008800880108020807F87E
:10183000000000000000000007F007E007C007807C
:101840000780070007000780078007C007E007F050
:10185000000000000000000007F003F001F000F0BD
:1018600000F00070007000F000F001F003F007F0ED
:101870000000000000000000008000800080008068
:101880000FF8008000800080008000000FF800004A
:101890000000000000000000000000000808041024
:1018A00002200140008001400220041008080000CE
:1018B0000000000000000000000000000180018026
:1018C000000000001FF800000000018001800000FF
:1018D0000000000000000000000000000180018006
:1018E00000000000000000000000018001800000F6
:1018F00000000000000000800140022002200410CF
:101900000410080808081004100420022002000037
:10191000000000000000000000002002200210046F
:1019200010040808080804100410022002200140D6
:1019300000800000000000001FFC18040C040600DA
:101940000300030002000400040008041FFC1FFC45
:1019500000000000000000003FFC181818181818BC
:1019600018181818181818181818181818183C3CAF
:101970000000000000001004100410041004100403
:10198000100410041004100410041004180C0C1897
:1019900007F00000000007F00C18180C10041004E9
:1019A0001004100410041004100410041004100497
:1019B000100400000000000000C003000400040048
:1019C000080008000FC0080008000400040003001D
:1019D00000C00000000000000000181818180000E7
:1019E0000000000000000000000018181818000097
:1019F0000000000000000008000800100010002097
:101A0000002000400040008010803B002E000C00B1
:101A10000400000000000080008000800080008042
:101A200000800080008000800080008000801FFC1B
:101A30000000000000000000012001200120012022
:101A4000024002400240024004800480048004807E
:101A5000000000000000000000080010002000400E
:101A6000008001000200040008001FF800000000D0
:101A7000000000000000000001C006300C1808083B
:101A800010041004200220020000000000000000EA
:101A90000000000003E00C18100420022002408126
:101AA00041C143E141C140812002200210040C18D1
:101AB00003E0000000000000006000900100010051
:101AC00001000100010001000100010012000C00F2
:101AD0000000000000000060009001000100038091
:101AE00005400540054003800100010012000C0084
:101AF00000000000000000000000000000001FFCCB
:101B000000001FFC00001FFC00000000000000009F
:101B1000000000000000000008301048208421046C
:101B200012080C1000003FFC00003FFC0000000009
:101B30000000000000000000000000000E00110482
:101B400020880E7011042088007000000000000042
:101B50000000000000000000000000000C1810242D
:101B600020422082210212040C1800000000000014
:101B70000000000000000000000000000C1C12200B
:101B800021402080214012200C1C00000000000099
:101B900000000000000000200020002000401FFC8A
:101BA00000400080008001001FFC010002000200D4
:101BB0000200000000000000020C023002C003001E
:101BC0000E003200620032000E00030002C002303C
:101BD000020C000000001820062001A00060003860
:101BE0000026002300260038006001A006201820EF
:101BF00000000000000600180060018006001800C8
:101C00003000180006002180186006180186006068
:101C10000018000630000C00030000C00030000C6B
:101C20000006000C003000C2030C0C3030C0030072
:101C30000C00300000000000000000000C1812240E
:101C400021422082214212240C18000000000000D2
:101C5000000000000000000018183C3C3C3C181834
:101C6000000000000000018003C003C001800000EC
:101C70000000000000000000018003C003C00180DC
:101C800000000000000018183C3C3C3C1818000004
:101C9000000000000000008001C002A0049000804D
:101CA00000800080008001C002200220022001C0CC
:101CB00000000000000001C002200220022001C03C
:101CC000008000800FF8008000800080008000808D
:101CD00000000000000001C002200220022001C01C
:101CE00000000000000000000000000000000000F4
:101CF000000000000000002000200060004000C044
:101D000000800180010001000000000000000000D0
:101D10000000000000000090009001B0012003606E
:101D2000024006C0048004800000000000000000A3
:101D30000000000030004800480033E806380C1866
:101D40000C080C000C000C000C000608031001E04D
:101D50000000000000000000009003F00C900C80D8
:101D6000068001C000B0009818980CB003C0008035
:101D7000000000000000000021C216340808100412
:101D80001004200220022002100410040808163457
:101D900021C200000000005003F006B00C90188033
:101DA000188019001900190019000A08061003E02C
:101DB0000400000000000000007000F8009801908E
:101DC00001800FF0018001800100078009C80A78B6
:101DD00004300000000000041808241024202440CF
:101DE000188001000200058C0A5212522252418CC6
:101DF00000000000000001C002200200010000807D
:101E0000014002200220014000800040002002200A
:101E100001C000000000383018701C40144016400B
:101E200016401640134C1352115211D210CC60C000
:101E3000605E0000008000800140014002207C1FA5
:101E40002002100408080410088809481634180CE9
:101E5000200200000080008001C001C003E07FFF7D
:101E60003FFE1FFC0FF807F00FF80F781E3C180C10
:101E700020020000000003C00C30100810082004ED
:101E80002004200420042004100810080C3003C093
:101E900000000000000003C00FF01FF81FF83FFC17
:101EA0003FFC3FFC3FFC3FFC1FF81FF80FF003C056
:101EB0000000000003E00C1811C42632280A48096B
:101EC0005005500550054809280A263211C40C183F
:101ED00003E0000000800140022004100808100404
:101EE00020024001200210040808041002200140D2
:101EF00000800000008001C003E007F00FF81FFC25
:101F00003FFE7FFF3FFE1FFC0FF807F003E001C01C
:101F100000800000000000003FFC2004200420049A
:101F200020042004200420042004200420043FFC7A
:101F300000000000000000003FFC3FFC3FFC3FFCB5
:101F40003FFC3FFC3FFC3FFC3FFC3FFC3FFC3FFCB9
:101F5000000000000000008001C0014002200220BB
:101F600004100410080808081004100420027FFF61
:101F7000000000000000008001C001C003E003E099
:101F800007F007F00FF80FF81FFC1FFC3FFE7FFF64
:101F900000000000000000000000118809900420EB
:101FA00002401998199802400420099011880000F5
:101FB00000000000000000000000000000400030B1
:101FC000003C3FFE003C00300040000000000000EC
:101FD00000000000000000000000000001000600FA
:101FE0001E003FFE1E000600010000000000000071
:101FF000000000000000008001C001C003E003E019
:1020000004900080008000800080008000800080BC
:1020100000800000000000800080008000800080C0
:10202000008000800080049003E003E001C001C054
:102030000080000000003FFC3FFC3FFC3FFC000034
:10204000000000000000000000003FFC3FFC3FFCDF
:102050003FFC000000000000000000000000000045
:102060000000000000000000000000000000000070
:102070000000000000000000000000000000000060
:102080000000000000000000000000000000000050
:102090000000000000000000000000000000000040
:1020A0000000000000000000000000000000000030
:1020B0000000000000000000000000000000000020
:1020C0000000000000000000000000000000000010
:1020D0000000000000000000000000000000000000
:1020E00000000000000000000000000000000000F0
:1020F00000000000000000000000000000000000E0
:1021000000000000000000000000000000000000CF
:1021100000000000000000000000000000000000BF
:1021200000000000000000000000000000000000AF
:10213000000000000000000000000000000000009F
:10214000000000000000000000000000000000008F
:10215000000000000000000000000000000000007F
:10216000000000000000000000000000000000006F
:10217000000000000000000000000000000000005F
:10218000000000000000000000000000000000004F
:10219000000000000000000000000000000000003F
:1021A000000000000000000000000000000000002F
:1021B000000000000000000000000000000000001F
:1021C000000000000000000000000000000000000F
:1021D00000000000000000000000000000000000FF
:1021E00000000000000000000000000000000000EF
:1021F00000000000000000000000000000000000DF
:1022000000000000000000000000000000000000CE
:1022100000000000000000000000000000000000BE
:1022200000000000000000000000000000000000AE
:10223000000000000000000000000000000000009E
:10224000000000000000000000000000000000008E
:10225000000000000000010007000300030003006D
:102260000300030003000300030003000300033026
:1022700007B000000000000007800CC01860186064
:102280000060006000C00180030006200C2C1FECE1
:10229000000000000000000007800CC01860006013
:1022A00000C0038000C00060006018600CCC078C88
:1022B000000000000000008001800380078005808E
:1022C0000D801980198031803FE00180018C03CCA2
:1022D00000000000000000001FE0180018001800B7
:1022E0001F801CC000600060006018600ECC078C6E
:1022F000000000000000000007800CC018601800FB
:102300001B801CC018601860186018600CCC078C0B
:1023100000000000000000001FE01FE0106000C08F
:10232000018001800300030006000600060C060C75
:10233000000000000000000007800CC0186018605A
:102340000CC007800CC01860186018600CCC078C9B
:10235000000000000000000007800CC0186018603A
:10236000186018600CE007E0006018600CCC078C67
:1023700000000000000008E039B01B181B181B18F3
:102380001B181B181B181B181B181B181B1819B619
:102390003CE60000000004201CE00C600C600C60B7
:1023A0000C600C600C600C600C600C600C600C66C7
:1023B0001EF600000000000010C071E03330333022
:1023C00030303030306030C03180311033167BF621
:1023D000000000000000000011C073603630303093
:1023E000306030C03060303030303630336079C6E5
:1023F00000000000000000001020706030E030E0BD
:1024000031E033603360366037F83060306678F63C
:10241000000000000000000013F8730033003300D8
:1024200033E033B0301830183018331831B678E64E
:10243000000000000000000010E071B0331833000D
:10244000336033B0331833183318331831B678E6A5
:10245000000000000000000013F873F8321830305C
:10246000306030603040304030C030C030C678C658
:10247000000000000000000010E071B033183318B5
:1024800031B030E031B033183318331831B678E654
:10249000000000000000000010E071B03318331895
:1024A0003318331831B830F83018331831B678E6AD
:1024B000000000000000000030F07998CD98CD9821
:1024C0000D980D98199831986198C598C59BFCF3A3
:1024D000000000000000080810841384218221827B
:1024E00021822182218221822182218213C410042F
:1024F000080800000000080811C4136426322432C2
:102500002032206220C22182231227F210041004FC
:10251000080800000000080811C4136426322032A5
:10252000206220C2206220322632236211C41004AD
:10253000080800000000084810C411C422C222C2CA
:1025400024C224C228C22FF220C220C211E41004E7
:102550000808000000000808100417F426022602EC
:1025600027C22762203220322632236211C410048F
:10257000080800000000080811E41334261226029F
:1025800026C22762273226322632236211C4100463
:102590000808000000000808100417F427F224328D
:1025A00020222062206220C2218221821184118493
:1025B000080800000000080811C4136426322632FF
:1025C000236221C2236226322632236211C4100400
:1025D0000808000000000808100411C42362263215
:1025E0002632237221F220322632236211C41004D3
:1025F000080800000000100824642C9444924492BF
:102600004492449244924492449244922E64200410
:10261000100800000000100824242C6444224422E6
:102620004422442244224422442244222E74200480
:10263000100800000000100824642C944492449276
:102640004412442244224442444244922EF4200440
:10265000100800000000100824642C9444924412D6
:102660004412442244124412449244922E642004A0
:10267000100800000000100824242C64446244E286
:1026800044A245A2452245F2442244222E7420044D
:10269000100800000000100824F42C8444824482B6
:1026A00044E2441244124412449244922E642004A0
:1026B000100800000000100824642C944492448206
:1026C000448244E244924492449244922E64200410
:1026D000100800000000100824F42C944412441246
:1026E0004412442244224422444244422E442004C0
:1026F000100800000000100824642C9444924492B6
:102700004492446244924492449244922E6420043F
:10271000100800000000100824642C944492449295
:102720004492447244124412449244922E6420040F
:102730001008000000001008262429544952415274
:102740004352425244524452485249522F24200488
:102750001008000003E00C18104421C220C240C140
:1027600040C140C140C140C120C221E210040C1848
:1027700003E0000003E00C1811C423622632443148
:102780004031406140C14181231227F210040C18EE
:1027900003E0000003E00C1811C42362263240312C
:1027A000406140C1406140312632236211C40C189F
:1027B00003E0000003E00C18104420C221C242C113
:1027C00042C144C144C14FF120C220C211E40C18DF
:1027D00003E0000003E00C18100427F22602460173
:1027E00047C14761403140312632236211C40C1881
:1027F00003E0000003E00C1811E423322612460126
:1028000046C14761473146312632236211C40C1854
:1028100003E0000003E00C18100427F227F2443113
:1028200040214061406140C12182218211840C1805
:1028300003E0000003E00C1811C423622632463185
:10284000436141C1436146312632236211C40C18F1
:1028500003E0000003E00C18100421C2236246319B
:1028600046314631437140B12632236211C40C18FF
:1028700003E0000003E00C1812742EDA26DA46D9C1
:1028800046D946D946D946D926DA2F7210040C18F3
:1028900003E0000000000000000000000000000055
:1028A0000000000000000000000000000000000028
:1028B0000000000000000000000000000000000018
:1028C0000000000000000000000000000000000008
:1028D0000000000000001008200420044002400214
:1028E00040125FFA400240024002400220042004ED
:1028F0001008000000001008200420244FF24002BD
:10290000400240024002400240125FFA20042004CC
:10291000100800000000100820242FF4400240029C
:10292000404247E24002400240125FFA2004200485
:102930001008000000001008200428144FF64A5226
:102940004A524A524A524C7248124FF228142004FA
:10295000100800000000100820242FF44202420258
:102960004FE242224222422242225FFA2004200405
:102970001008000000001108210421145FFA400231
:10298000444244424462442248224812281420040B
:102990001008000000001008210421044102413AFF
:1029A00043E25D02410241024102410A20F4200457
:1029B0001008000000001008204422444242424215
:1029C000426242224222442244324812201420040D
:1029D0001008000000001008220422044FC24242E6
:1029E00042424242424242424252445228742004ED
:1029F00010080000000010082084208440824082DB
:102A000040924FFA4082408240824082208420845B
:102A1000100800000000000000000000000000009E
:102A200000000000000000000000000000000000A6
:102A30000000000000000000000000000000000096
:102A40000000000000001008100810081FF8000027
:102A5000000000000000000001C000800080008035
:102A6000008000800080008000800080008001C025
:102A70000000000000000000077002200220022079
:102A800002200220022002200220022002200770E1
:102A900000000000000000001DDC0888088808888D
:102AA00008880888088808880888088808881DDC3D
:102AB00000000000000000001DDC0888088808886D
:102AC00008880888088808500850085008201C20EA
:102AD00000000000000000000E3804100410041074
:102AE00006100220022003200140014000800080E7
:102AF00000000000000000001DDC0888088808882D
:102B00000888088805080508050805080208021C49
:102B100000000000000000003BBE1114111411144D
:102B2000111411140A140A140A140A140414043E89
:102B300000000000000000003BFE1154115411542D
:102B4000115411540A540A540A540A54045404FEE9
:102B500000000000000000001DDC088808880888CC
:102B600008500850082008500850088808881DDCC4
:102B700000000000000000000E38041004100220C5
:102B800001400080014002200220041004100E3891
:102B900000000000000000001DDC0888088808888C
:102BA00005080508020805080888088808881DDC4B
:102BB00000000000000000003BFC11281128112833
:102BC0000A280A2804280A280A28112811283BFC68
:102BD000000000000000000000000C3000000000B9
:102BE0001C700C300C300C300C300C7007D800000E
:102BF00000000000000000000000000000000000D5
:102C000000000000000000000000000000000000C4
:102C1000000000000000018003C003C003C0018069
:102C2000018001800180018000000000018001809E
:102C30000000000000000000000004200E700E7074
:102C4000042004200000000000000000000000003C
:102C50000000000000000000022002200FF80FF822
:102C60000220022002200FF80FF80220022002208A
:102C700000000000000000007C1E380C1C180E3004
:102C8000076003C0018001800FF00180018003C054
:102C900000000000000000000C04120812100C20BC
:102CA00000400080010002180424082410180000CD
:102CB000000000000000000000E00190031003206D
:102CC00001400380058C0CD81870106018F00F1E9E
:102CD000000000000000000000000070006000C064
:102CE0000080010000000000000000000000000063
:102CF0000000000000000004000800100020002078
:102D0000004000400040004000200020001000086B
:102D1000000400000000200010000800040004006F
:102D2000020002000200020004000400080010007B
:102D3000200000000000000000000000080804104F
:102D4000022001401FFC014002200410080800007E
:102D500000000000000000000000008000800080F3
:102D600000800FF80080008000800080008000005C
:102D70000000000000000000000000000000000053
:102D800000000000000000001800180010002000E3
:102D90000000000000000000000000000000000033
:102DA00000000FF80000000000000000000000001C
:102DB0000000000000000000000000000000000013
:102DC00000000000000000000000000030003000A3
:102DD00000000000000000020004000800100020B5
:102DE00000400080010002000400080010002000E4
:102DF000000000000000000003E006300C180C1872
:102E00000C180C180C180C180C180C18063003E0D1
:102E100000000000000000000080038001800180AD
:102E2000018001800180018001800180018003C058
:102E3000000000000000000003C006600C300C30F1
:102E400000300030006000C00180031006100FF059
:102E5000000000000000000003C006600C300030DD
:102E6000006001C00060003000300C30066003C01C
:102E7000000000000000004000C001C003C002C00C
:102E800006C00CC00CC018C01FF000C000C001E09C
:102E900000000000000000000FF00C000C000C000F
:102EA0000FC00E600030003000300C30066003C0F0
:102EB000000000000000000003C006600C300C00A1
:102EC0000DC00E600C300C300C300C30066003C0AE
:102ED00000000000000000000FF00FF0083000605C
:102EE00000C000C001800180030003000300030054
:102EF000000000000000000003C006600C300C3031
:102F0000066003C006600C300C300C30066003C055
:102F1000000000000000000003C006600C300C3010
:102F20000C300C30067003F000300C30066003C02B
:102F30000000000000000000000000000000000091
:102F400000000000300030000000000030003000C1
:102F50000000000000000000000000000000000071
:102F600000001800180000000000180018001000F1
:102F70002000000000000000000C003000C0030032
:102F80000C003000600030000C00030000C0003076
:102F9000000C000000000000000000000000000025
:102FA0001FF8000000001FF80000000000000000F3
:102FB000000000000000000030000C00030000C012
:102FC0000030000C0006000C003000C003000C00B4
:102FD000300000000000000007F01818300C380C1A
:102FE000003800E000C0008000000000018003C045
:102FF000018000000000000003E00410080811C474
:10300000122412241224123411CC0800040803F0F4
:103010000000000000000000008001C001400260CC
:1030200002600430043007F00C38081808181C3C03
:1030300000000000000000001FE00C380C180C1805
:103040000C300FF00C180C0C0C0C0C0C0C381FE096
:10305000000000000000000003E006380C18180013
:10306000180018001800180018000C08063003E0BB
:1030700000000000000000001FC00C700C180C0CB9
:103080000C0C0C0C0C0C0C0C0C0C0C180C701FC049
:1030900000000000000000001FF80C180C080C00D5
:1030A0000C200FE00C200C000C000C080C181FF872
:1030B00000000000000000001FF80C180C080C00B5
:1030C0000C200FE00C200C000C000C000C001E006B
:1030D000000000000000000003F0061C0C0C1804A7
:1030E000180018001800183C18180C18061803F0DF
:1030F00000000000000000001E3C0C180C180C180A
:103100000C180FF80C180C180C180C180C181E3C86
:10311000000000000000000003C001800180018069
:10312000018001800180018001800180018003C055
:10313000000000000000000001E000C000C000C06E
:1031400000C000C000C000C000C038C018C00F8060
:1031500000000000000000001E7C0C300C600CC061
:103160000D800F800DC00CE00C700C380C1C1E1E66
:1031700000000000000000001E000C000C000C000D
:103180000C000C000C000C000C000C080C181FF8B4
:103190000000000000000000380E180C1C1C162C4B
:1031A000162C136C134C114C11CC108C108C381E37
:1031B00000000000000000001C380E100B100B1067
:1031C0000990099008D008D00870087008301C10C9
:1031D000000000000000000003E006300C18180C8E
:1031E000180C180C180C180C180C0C18063003E0EE
:1031F00000000000000000001FE00C300C180C184C
:103200000C180C300FE00C000C000C000C001E0021
:10321000000000000000000003E00E38180C180C3D
:10322000180C180C180C188C0D4C065803F00040A4
:1032300000480030000000001FE00C300C180C1893
:103240000C180C300FE00CC00C700C300C381E1C2D
:10325000000000000000000007E80C181808180023
:103260000E0003E000300018001810181C3017C0C2
:1032700000000000000000003FFC318C218421840C
:10328000018001800180018001800180018003C0F4
:1032900000000000000000001E1C0C080C080C08B8
:1032A0000C080C080C080C080C080C18063003E07D
:1032B00000000000000000003C1C1808180818104E
:1032C0000C100C200C2006400640028003800100F8
:1032D00000000000000000003DEE18C418C418C42F
:1032E0000CC40CC80D680D680D6806280630061061
:1032F00000000000000000001E1C0C08061807302B
:10330000036001C001C003600660043008181C3C63
:1033100000000000000000007C1E380C1C180E305D
:10332000076003C00180018001800180018003C02B
:1033300000000000000000003FF82018003000608E
:1033400000C00180030006000C00180830183FF888
:1033500000000000000007F8060006000600060056
:10336000060006000600060006000600060006002D
:1033700007F8000000006000300018000C00060094
:103380000300018000C0006000300018000C00063F
:103390000002000000000FF000300030003000306C
:1033A000003000300030003000300030003000309D
:1033B0000FF000000000000000000080014002202B
:1033C00004100808100400000000000000000000C5
:1033D00000000000000000000000000000000000ED
:1033E00000000000000000000000000000003FFCA2
:1033F00000000000010001000180008000C00040CA
:10340000004000000000000000000000000000007C
:1034100000000000000000000000000000000000AC
:1034200007C00C60006007E00C600C6007D800006B
:1034300000000000000000000E000600060006006C
:1034400007E0061806180618061806180BF0000004
:10345000000000000000000000000000000000006C
:1034600003E00C300C000C000C000C3007E00000F6
:10347000000000000000000000E00060006000604C
:1034800007E00C600C600C600C600C6007D0000062
:10349000000000000000000000000000000000002C
:1034A00003E00C300C300FF00C000C3007E0000093
:1034B000000000000000000000F001980180018081
:1034C00007E00180018001800180018003C00000CD
:1034D00000000000000000000000000000000000EC
:1034E00007F00CC00CC007800C000F801CE01860B7
:1034F0000CC00780000000000E0006000600060059
:1035000006E0073006300630063006300E78000040
:1035100000000000000000000000018001800000A9
:1035200003800180018001800180018003C00000D0
:103530000000000000000000000000C000C000000B
:1035400001C000C000C000C000C000C00CC00CC062
:1035500007800000000000000E00060006000600C4
:1035600006780630066007C0076006300E3C000093
:103570000000000000000000038001800180018045
:1035800001800180018001800180018003C0000072
:10359000000000000000000000000000000000002B
:1035A0006F7C18C618C618C618C618C63DEF0000AE
:1035B000000000000000000000000000000000000B
:1035C00037E00C300C300C300C300C301E78000022
:1035D00000000000000000000000000000000000EB
:1035E00003E00630063006300630063003E0000007
:1035F00000000000000000000000000000000000CB
:1036000019F00618061806180618061807E006002E
:1036100006000F0000000000000000000000000095
:1036200003E8063006300630063003F00030003084
:1036300000300078000000000000000000000000E2
:103640000DF0061806000600060006000F00000038
:10365000000000000000000000000000000000006A
:1036600003E00630030001E00030063003E0000014
:1036700000000000000000000000008001800180C8
:1036800007E00180018001800190019000E00000CE
:10369000000000000000000000000000000000002A
:1036A0001C700C300C300C300C300C7007D8000043
:1036B000000000000000000000000000000000000A
:1036C0003C1C18080C100620034001C000800000BC
:1036D00000000000000000000000000000000000EA
:1036E0003DEE18C408CC0D68052806300210000015
:1036F00000000000000000000000000000000000CA
:103700003C3C0C30036001C003600C303E7C000088
:1037100000000000000000000000000000000000A9
:103720001F1C0E0806100320034001800100020048
:10373000040018000000000000000000000000006D
:1037400007F00430006001800300061007F000005D
:103750000000000000C001000100010001000100A4
:10376000020004000200010001000100010001004C
:1037700000C0000000800080008000800080008089
:103780000000000000000000008000800080008039
:103790000080008001800040004000400040004068
:1037A0000020001000200040004000400040004089
:1037B0000180000000000000000000000000000088
:1037C0000E003F8061C300FE0038000000000000D2
:1037D00000000000000000000100010001000FF0E7
:1037E00001000380054009B0110816880810002068
:1037F0000040000000000080008001001FF8010070
:103800000180036005500948088411440E08001027
:103810000020000000000000000008000820081040
:1038200008180808040004000200028001000000DB
:103830000000000000000000100010001020101018
:10384000101C1808080008000C0004800500020085
:103850000000000000000000000007C000600180C0
:1038600002000FE000300010006000C00100020004
:10387000000000000000000007C0006000C0010060
:103880000FE00030001800100030006000800100E0
:1038900002000000000000000300018002000000A0
:1038A0000FE0004000800100028004C808700000A2
:1038B000000000000000000003C0008001000000C4
:1038C0000FE00040008001000280048008C4107CEA
:1038D00000000000000000000800046004300E003A
:1038E0000460059006080C0814900C6004000000A9
:1038F00000000000000000000818040C04001F3045
:1039000004480484050406040C8814500C200400A8
:1039100000000000000000000200010011100F88EC
:103920000148024402440444044C08880880110001
:1039300000000000000000080206010011160F88B8
:103940000148024402440444044C088808801100E1
:103950000000000000000200020001F00F000080E3
:1039600000F00F4000400020032004D0042003009A
:1039700000E0000000080206020801F60F000080C7
:1039800000F00F4000400020032004D0042003007A
:1039900000E0000000000000004000C001800300C3
:1039A000020004000C00040002000300018000C0BB
:1039B0000040000000080006004800C60180030027
:1039C000020004000C00040002000300018000C09B
:1039D000004000000000002010301010107C10107B
:1039E00010101810081008100C10051006100420F4
:1039F0000040000000040003102410131010107C7D
:103A000010101810081008100C10051006100420D3
:103A1000004000000000000000000FC000E0018036
:103A2000000000000000100010000C3807F000003B
:103A3000000000000008000600080FC600E001803A
:103A4000000000000000100010000C3807F000001B
:103A500000000000000002000200010001F00E80E2
:103A600000C0004000400020033004C004200300D8
:103A700000E00000000802060208010601F00E80C6
:103A800000C0004000400020033004C004200300B8
:103A900000E0000000000000040004000400040036
:103AA000040004000400040004080610032001C000
:103AB0000000000000000010040C0410040C0400BE
:103AC000040004000400040004080610032001C0E0
:103AD00000000000000000800080008000801FFCCB
:103AE00000800180028002800140004000800100CF
:103AF00002000000000800860088008600801FFC8D
:103B000000800180028002800140004000800100AE
:103B100002000000000000000020022002201FFC24
:103B200002200220022002A002400200020001F84E
:103B300000000000000800060028022602201FFCEA
:103B400002200220022002A002400200020001F82E
:103B5000000000000000000007C0024000800100DB
:103B6000020004700B801C80010001000100008035
:103B7000007000000008000607C80246008001002F
:103B8000020004700B801C80010001000100008015
:103B90000070000000000000040004381F0C04083E
:103BA00004100400040004000C8018801040303C15
:103BB00020000000000400030404043B1F0C040860
:103BC00004100400040004000C8018801040303CF5
:103BD000200000000000008000A00C9007E00080A2
:103BE0000080008000B000C8018C000C001800307C
:103BF000004000000004008300A40C9307E0008054
:103C00000080008000B000C8018C000C001800305B
:103C1000004000000000000000000000000008E07C
:103C2000071000080008001000600080000000007D
:103C30000000000000000000000000000070238869
:103C40001C04000400080008003000C0010000004F
:103C5000000000000008000600080006007023882D
:103C60001C04000400080008003000C0010000002F
:103C700000000000000000000000003C03C01D0028
:103C8000010001000100010002000200013000E01B
:103C900000000000000400030004003B03C01D00FE
:103CA000010001000100010002000200013000E0FB
:103CB0000000000000000000010001000100010000
:103CC00001400180030004000800080008000460AF
:103CD00003C0000000000008010601080106010001
:103CE000014001800300040008000800080004608F
:103CF00003C0000000000000040004301F18040886
:103D000004100420042004100C1018D01138309432
:103D100020600000000000000800080808F008000B
:103D20000800100010001000100012000C8C087821
:103D30000000000000000000040002700188170469
:103D400015040A040A0414042A38294C1036000009
:103D50000000000000000800080008603C9009080E
:103D600009042A042C0418081838284C583608006E
:103D7000000000000000000003800C60111021080A
:103D80002108210421041208120814100820004000
:103D900000000000000000200820092408F8082086
:103DA0000820082008101010101010E015380944E1
:103DB00000800000000400230824092308F80820DC
:103DC0000820082008101010101010E015380944C1
:103DD00000800000000200250822092408F80820BD
:103DE0000820082008101010101010E015380944A1
:103DF0000080000000000000001006181C180814C5
:103E00000814081208101010100810080810066096
:103E100001800000000400030014061B1C18081495
:103E20000814081208101010100810080810066076
:103E300001800000000000020015061A1C1808147A
:103E40000814081208101010100810080810066056
:103E5000018000000000000000000300018001005C
:103E600002000100008001E006583A4E1144008033
:103E70000000000000000010000C0310018C010085
:103E800002000100008001E006583A4E1144008013
:103E90000000000000000000000803140188010079
:103EA00002000100008001E006583A4E11440080F3
:103EB0000000000000000000000000000000000002
:103EC00004000A00118000E00038000E000000002D
:103ED0000000000000000010000C0010000C0000AA
:103EE00004000A00118000E00038000E000000000D
:103EF000000000000000000000080014000800009E
:103F000004000A00118000E00038000E00000000EC
:103F100000000000000000F80820082009FC08202C
:103F20000820082008101010101010E0153809445F
:103F300000800000000400FB0824082309FC08207E
:103F40000820082008101010101010E0153809443F
:103F500000800000000000FA0825082209FC082063
:103F60000820082008101010101010E0153809441F
:103F700000800000000000800080008003E00080DE
:103F8000008007F0008000800080068009C0136078
:103F90000C0000000000000000000F0001000210F3
:103FA0000210041014302E2049A0506050B0211887
:103FB000000000000000040004001F00040C0412B4
:103FC00004100C10160816080C0804080408061043
:103FD0000BE0000000000080108013C01CA00890BF
:103FE0000D88130421042288124814100820004070
:103FF00000000000000001000100070001C0018076
:1040000003200510030801C801080108011000A0E1
:104010000040000000000000000003400480021087
:1040200002680B8406040128011000800060003043
:10403000002000000000000000000600090808340D
:1040400004C437020E0201240118008000C0007869
:1040500000300000000000000020007008A8096483
:1040600009240924092409240AA80E700420004008
:104070000080000000000020105010EC11241122DC
:10408000112211221122112210A21262140C0830E6
:1040900000C00000000000000080008000E0008000
:1040A000008000400040004003A00420025801802E
:1040B0000000000000000080008000E00080008020
:1040C0000080004000400040002003A0047004581D
:1040D000038000000000000000C0006001800200BA
:1040E00002000200020002F00398000800180070AD
:1040F00001800000000000000400040004000580AE
:1041000006C006400E200420002000400040008031
:10411000010000000000000009C00640008000808F
:1041200001000170038806040C0418C401280090E3
:104130000060000000000800080008603C900910C2
:1041400009102A202C20182018202822581408088A
:10415000000000000000000009C006400080008050
:10416000010001700388060C0C04180C00080010F4
:1041700000200000000000000800040004000E0001
:1041800004C0053006080C0814100C2004000000C0
:1041900000000000000000000800040004001F00F0
:1041A000043004C8050406040C0814100C20040094
:1041B000000000000000000000003E002400046039
:1041C000059006080C0C1804280C48682888105024
:1041D000002000000000000003C000800160039088
:1041E000041000A001400080030004100A28154CB0
:1041F0000090000000000100010007C0010002184B
:1042000004240F4819B000C0038004800880041003
:1042100003E00000000000000100010002000200B5
:1042200004C00520062004200820082010141008CF
:10423000000000000000000000000000000000007E
:10424000000000000000000000000000000000006E
:10425000000000000000000000000000000000005E
:10426000000000000000000000000000000000004E
:10427000000000000000000000000000000000003E
:10428000000000000000000000000000000000002E
:10429000000000000000000000000000000000001E
:1042A000000000000000000000000000000000000E
:1042B00000000000000000000000000000000000FE
:1042C00000000000000000000000000000000000EE
:1042D00000000000000000000000000000000000DE
:1042E00000000000000000000000000000000000CE
:1042F00000000000000000000000000000000000BE
:1043000000000000000000000000000000000000AD
:10431000000000000000000000000000000000009D
:10432000000000000000000000000000000000008D
:10433000000000000000000000000000000000007D
:10434000000000000000000000000000000000006D
:10435000000000000000000000000000000000005D
:10436000000000000000000000000000000000004D
:10437000000000000000000000000000000000003D
:10438000000000000000000000000000000000002D
:10439000000000000000000000000FF8001801609D
:1043A000018001000100020002000400080000007A
:1043B0000000000000001FFE0004009800E00080E4
:1043C000008000800180010002000200040008005B
:1043D00010000000000000000000006001800700E5
:1043E00009000100010001000100010001000000BE
:1043F000000000000000003C01E00F8030800080E1
:1044000000800080008000800080008000800080AC
:104410000080000000000000008000800FF8080805
:10442000080800100010002000400080010000007B
:10443000000000000000004000400FFE08020804D9
:104440000004000800080010001000200040008058
:1044500001000000000000000000000007F00080E4
:1044600000800080008000801FFC00000000000031
:10447000000000000000000000000FF80080008035
:10448000008000800080008000803FFE000000006F
:1044900000000000000000000000002000200FF8D5
:1044A000006000A00120022004A00860002000009D
:1044B0000000000000000010001000101FFE00307F
:1044C000005000900110021004100810105000302D
:1044D0000010000000000100010001003FF8010889
:1044E000010801080208020804100410081010A0B6
:1044F0002040000000080106010801063FF80108FD
:10450000010801080208020804100410081010A095
:1045100020400000000002000200010001F80F80AE
:104520000080008000F80FC0004000400020002004
:1045300000000000000802060208010601F80F80D2
:104540000080008000F80FC00040004000200020E4
:1045500000000000000002000200040007F0041048
:104560000820102000400080010002000400080024
:1045700010000000000802060208040607F00410FC
:104580000820102000400080010002000400080004
:104590001000000000000100020004000BF81040B1
:1045A00000400080008001000200040008001000AC
:1045B0000000000000080106020004060BF810408D
:1045C000004000800080010002000400080010008C
:1045D0000000000000000000000000001FF80008BC
:1045E000000800080008000800083FFC0000000068
:1045F0000000000000080006000800061FF8000880
:10460000000800080008000800083FFC0000000047
:1046100000000000000000200220022002203FFED7
:104620000220022002200220002000200020004062
:1046300000800000000800260228022602203FFE1B
:104640000220022002200220002000200020004042
:1046500000800000000000000C00060000000004C4
:104660000C080610002000400080010002000C0031
:1046700018000000000800060C08060600000004F0
:104680000C080610002000400080010002000C0011
:10469000180000000000000000000FF800100020CB
:1046A00000400080014002200410080810040000AF
:1046B000000000000008000600080FF600100020AF
:1046C000004000800140022004100808100400008F
:1046D00000000000000000000200020002FC3F0495
:1046E00002080210020002000200020003F00000B3
:1046F00000000000000800060208020602FC3F0459
:1047000002080210020002000200020003F0000092
:1047100000000000000000000010001008100C1045
:10472000042000200020004000800100020004005E
:1047300008000000000800060008001608100C1011
:10474000042000200020004000800100020004003E
:1047500008000000000002000200040007F004103E
:1047600008201220014000800140022004000800BF
:1047700010000000000802060208040607F00410FA
:10478000082012200140008001400220040008009F
:10479000100000000000000000F00F00008000800A
:1047A00000803FFC008001000100020004000800BE
:1047B000100000000008000600E80F0600800080DE
:1047C00000803FFC0080010001000200040008009E
:1047D0001000000000000000000000000020052084
:1047E000052000400040008001000200040000009D
:1047F0000000000000000000000011081988089067
:1048000000200040008001000200040008001000A9
:1048100000000000000800060008110E198808902A
:104820000020004000800100020004000800100089
:1048300000000000000000000FF000000000000079
:104840003FFC00800080010001000200040008001D
:1048500010000000000800060FE80006000000003D
:104860003FFC0080008001000100020004000800FD
:10487000100000000000020002000200020003001D
:104880000280024002200200020002000200020038
:1048900002000000000802060208020602000300EF
:1048A0000280024002200200020002000200020018
:1048B00002000000000000000080008000800080F6
:1048C0003FFE00800080010001000200040008009B
:1048D000100000000000000000000FF800000000C1
:1048E00000000000000000003FFE0000000000008B
:1048F000000000000000000000000FF80010001091
:104900000420022001400080014002200400080031
:104910001000000000000200010000800FC00080B5
:10492000010002A004900888108020800080008090
:104930000080000000000000001000300060004017
:1049400000800100020004000800100000000000C8
:104950000000000000000000000001000300022031
:1049600004100408080810042000000000000000E3
:1049700000000000000800060008010603000220F5
:1049800004100408080810042000000000000000C3
:104990000000000000000004000A010403000220DF
:1049A00004100408080810042000000000000000A3
:1049B000000000000000000002000200023002C0FF
:1049C00003000200020002000200020001F00000E9
:1049D000000000000008000602080206023002C0C3
:1049E00003000200020002000200020001F00000C9
:1049F0000000000000000004020A0204023002C0AD
:104A000003000200020002000200020001F00000A8
:104A1000000000000000000000001FF80008001067
:104A20000020004000800100020004000800100087
:104A3000000000000008000600081FF60008001033
:104A40000020004000800100020004000800100067
:104A5000000000000000000200041FFA000800101F
:104A60000020004000800100020004000800100047
:104A70000000000000000000000000000000020034
:104A8000050008801040002000100008000400000D
:104A900000000000000800060008000600000200F8
:104AA00005000880104000200010000800040000ED
:104AB00000000000000000040008000400000200E4
:104AC00005000880104000200010000800040000CD
:104AD0000000000000000000008000803FFE01C0D8
:104AE00002A0049008881084208202800180008047
:104AF00000000000000800060088008600803FFEDD
:104B000002A0049008881084208202800180008026
:104B100000000000000000020085008200803FFECF
:104B200002A0049008881084208202800180008006
:104B30000000000000000000000000001FFC000852
:104B400000100020004002800100008000400000B2
:104B500000000000000000000E0001E00000000066
:104B60000E0001E0000010000E0001E0001800003F
:104B70000000000000000000004000C000800100B4
:104B8000010002000200041008081FF400020000E7
:104B900000000000000000000008001800100420C1
:104BA000022001C000800140022004000800100023
:104BB0000000000000000000000007F000800080FE
:104BC000008000803FFC00800080008000F8000032
:104BD00000000000000000000000020002000FF8CA
:104BE00001080110008000800040004000400000EB
:104BF0000000000000000000040004001FFC020888
:104C0000021002000100010001000080008000800D
:104C100000000000000000000000000007E000208D
:104C20000020002000201FF800000000000000000D
:104C30000000000000000000000000001FF0001055
:104C400000100010002000003FFE000000000000E7
:104C50000000000000000000000007F0001000103D
:104C6000001007F000100010001007F00000000016
:104C700000000000000000001FFC0004000400040D
:104C800000041FFC000400040004000400041FFCD6
:104C9000000000000000000007F0000000001FFC02
:104CA0000008001000200040008001000200040005
:104CB00008000000000000400040044004400440A0
:104CC0000440044004400440004000800100020011
:104CD0000400000000000040044004400440044080
:104CE0000440044004400440084408481050106048
:104CF0002040000000000000040004000400040440
:104D000004080410042004400480050006000C0080
:104D1000000000000000000000000FFC0804080470
:104D20000804080408040804080408040FFC000030
:104D30000000000000000000000000000FF808085C
:104D40000808001000100020004000800100000052
:104D5000000000000000000000000FFE0802080430
:104D6000000400080008001000100020004000802F
:104D70000100000000000080008000800FF008802B
:104D80000880088008803FFE00800080008000804E
:104D9000000000000000000000000FF800100020DC
:104DA00000C000800080008000803FFE0000000006
:104DB00000000000000000001FF800081FF80010AD
:104DC00000200040008001000200040008001000E4
:104DD000000000000000000000000C0006000004BD
:104DE00000080010002000400080010002000C00BC
:104DF0001800000000040003004400430FFE0804F4
:104E0000000400080008001000100020004000808E
:104E100001000000000000000080008007F800880A
:104E20000088008801080108022804100000000022
:104E3000000000000000000000000100020003F07C
:104E400004400840008000800100020004000000CF
:104E50000000000000000000000000000000000052
:104E60000000000000000000000000000000000042
:104E70000000000000000000000000000000000032
:104E80000000000000000000000000000000000022
:104E90000000000000000000000000000000000012
:104EA0000000000000000000000000000000000002
:104EB00000000000000000000000000000000000F2
:104EC00000000000000000000000000000000000E2
:104ED00000000000000000000000000000000000D2
:104EE00000000000000000000000000000000000C2
:104EF00000000000000000000000000000000000B2
:104F000000000000000000000000000000000000A1
:104F10000000000000000000000000000000000091
:104F20000000000000000000000000000000000081
:104F30000000000000000000000000000000000071
:104F40000000000000000000000000000000000061
:104F5000000000000000008001C00140036002600A
:104F60000260043007F004300818081808181C3CC8
:104F700000000000000000001FF00E380C180C3874
:104F80000C700FC00C700C380C180C180E301FE091
:104F900000000000000000001FF80E180C080C00B4
:104FA0000C000C000C000C000C000C000C001E008F
:104FB000000000000000008001C001C0036002602A
:104FC00002600430043004300818081808181FFC68
:104FD00000000000000000001FF80E180C080C0074
:104FE0000C200FE00C200C000C000C080E181FF811
:104FF00000000000000000003FF8201800300060B2
:1050000000C00180030006000C00180830183FF8AB
:1050100000000000000000001E3C0C180C180C18CA
:105020000C180FF80C180C180C180C180C181E3C47
:10503000000000000000000003E006300C18180C0F
:105040001A2C1BEC1BEC1A2C180C0C18063003E065
:10505000000000000000000003C00180018001800A
:10506000018001800180018001800180018003C0F6
:1050700000000000000000001E780C300C600CC026
:105080000D800F800DC00CE00C700C380C181E3C0D
:10509000000000000000008001C0014003600260C9
:1050A00002600430043004300818081808181C3C4A
:1050B00000000000000000000000380E1C1C162C30
:1050C000162C132C134C114C11CC108C108C381E38
:1050D00000000000000000001C1C0E080B080B085C
:1050E0000988098808C808C80868086808381C1CA6
:1050F00000000000000000000FF80FF80808000092
:10510000041007F007F00410000008080FF80FF86B
:10511000000000000000000003E006300C18180C2E
:10512000180C180C180C180C180C0C18063003E08E
:1051300000000000000000001FFC0C180C180C18E8
:105140000C180C180C180C180C180C180C181E3C09
:1051500000000000000000001FE00E300C180C18CA
:105160000C180E300FE00C000C000C000C001E00A0
:1051700000000000000000000FF8080808000C0004
:1051800006000300030006000C0008080FF80FF8E3
:1051900000000000000000001FF81188018001805D
:1051A00001800180018001800180018003C0000036
:1051B00000000000000000380E6C1BC80180018058
:1051C000018001800180018001800180018003C095
:1051D000000000000000000003C001800FF01998DB
:1051E000318C318C318C318C19980FF0018003C0D7
:1051F00000000000000000001E1C0C08061807300C
:10520000036001C001C003600660043008181C3C44
:10521000000000000000000023C4118811881188DC
:1052200019980DB003C0018001800180018003C086
:1052300000000000000003E006300C18180C180CE9
:10524000180C180C1C180E30076011441F7C1F7CB2
:10525000000000000000000000000000000000004E
:10526000000000000000000000000000000000003E
:10527000000000000000000000000000000000002E
:10528000000000000000000000000000000000001E
:10529000000000000000000000000000000000000E
:1052A00000000000000000000000000000000000FE
:1052B00000000000000000000000000000000000EE
:1052C00000000000000000000000000000000000DE
:1052D00000000000000000000000000000000000CE
:1052E00000000000000000000000000000000000BE
:1052F00000000000000000000000000000000000AE
:10530000000000000000000000000000000000009D
:10531000000000000000000000000000000000008D
:10532000000000000000000000000000000000007D
:10533000000000000000000000000000000000006D
:10534000000000000000000000000000000000005D
:105350000000000000000000000007200FC00CC08B
:1053600018C018C018C018C018C00D500620000082
:10537000000000000000000000C00360063006309E
:1053800006E0078006E00630063007E006C00600AB
:1053900000000000000000000000000804080A10DF
:1053A00002100120012001C00080008000800080E8
:1053B000000000000000000003C006700C20060082
:1053C000030003C006600C300C300C30066003C0D4
:1053D0000000000000000000000003C006700C2068
:1053E000060003C006000C200C30066003C000005D
:1053F00000000000000000000120026001C00080E9
:105400000300040008000800060001E0001001E0AD
:10541000008000000000000000E005B00F18061832
:10542000061806180618061806180018001800189E
:10543000000800000000000001C0036006300630D4
:10544000063007B00630063006300630036001C073
:10545000000000000000000001000700030003003E
:1054600003000300030003000300032001C00080C9
:10547000000000000000000002000E100638064088
:105480000680078006C0066006300678040000002B
:10549000000000000000000004000A00010000807D
:1054A000008001400140022002280418041000007E
:1054B000000000000000000000000C300C300C3038
:1054C0000C300C300C300C300E300B7409DC08083A
:1054D0000000000000000000000000000E18060898
:1054E000061002100320012001C000C0008000004F
:1054F00000000000000000400180022001C0008088
:10550000006001800200020001800060001001E0E4
:105510000080000000000000000001C003600630B1
:105520000630063006300630036001C0000000007F
:1055300000000000000000000000000007F80FF865
:10554000124002400240024002481CD008600000A5
:10555000000000000000000001E0033006180418FD
:105560000C180C300F600D800C000C000C000000BB
:105570000000000000000000000001F80360063099
:105580000630063006300630036001C0000000001F
:10559000000000000000000000000FE01300030006
:1055A00003000300030003000300032001C0008088
:1055B0000000000000000000000000000E30061097
:1055C00006180608060806080618073003E00180DA
:1055D00000000000000000000100010003800D60D9
:1055E00019303118311819300D60038001000100A5
:1055F000000000000000000004080A10012000C0A4
:105600000080014001400220022804180810000018
:1056100000000000000000000100110039000960D6
:1056200011301110111019300D60038001000100BC
:1056300000000000000000000000022004100C1810
:105640001888188C194C1D5C0E38041000000000DE
:10565000000000000000000000000000000000004A
:10566000000000000000000000000000000000003A
:10567000000000000000000000000000000000002A
:10568000000000000000000000000000000000001A
:105B1000000000000000008001C00140036002603E
:105B20000260043007F004300818081808181C3CFC
:105B300000000000000000001FF80E180C080C0008
:105B40000C000FE00C700C380C180C180E301FE015
:105B500000000000000000001FF00E380C180C3888
:105B60000C700FC00C700C380C180C180E301FE0A5
:105B700000000000000000001FF80E180C080C00C8
:105B80000C000C000C000C000C000C000C001E00A3
:105B900000000000000000000FF802300230023068
:105BA0000430043004300830083008303FFC200452
:105BB00000000000000000001FF80E180C080C0088
:105BC0000C200FE00C200C000C000C080E181FF825
:105BD000000000000000022000001FF80C180C0854
:105BE0000C000C200FE00C200C000C000C080E1810
:105BF0001FF800000000000073CE399C0990099046
:105C000005A00DB00FF00DB019981998318C7BDEFE
:105C100000000000000003C014701838101C003889
:105C2000007001C000700038101C0838067001E0D8
:105C300000000000000000001E3C0C180C380C583E
:105C40000C580C980C980D180D180E180C181E3CBA
:105C5000000000000000063003E01E3C0C180C3869
:105C60000C580C580C980C980D180D180E180C1890
:105C70001E3C0000000000001E180C340C600C805C
:105C80000D000F800CC00C600C700C380C181E1E20
:105C900000000000000000000FF802300230023067
:105CA0000430043004300830083028303830307880
:105CB00000000000000000000000380E1C1C162C24
:105CC000162C132C134C114C11CC108C108C381E2C
:105CD00000000000000000001E3C0C180C180C18FE
:105CE0000C180FF80C180C180C180C180C181E3C7B
:105CF000000000000000000003E006300C18180C43
:105D0000180C180C180C180C180C0C18063003E0A2
:105D100000000000000000001FFC0C180C180C18FC
:105D20000C180C180C180C180C180C180C181E3C1D
:105D300000000000000000001FE00E300C180C18DE
:105D40000C180E300FE00C000C000C000C001E00B4
:105D5000000000000000000003E006380C181808DE
:105D6000180018001800180018000C08063003E08E
:105D700000000000000000001FF811880180018071
:105D800001800180018001800180018003C000004A
:105D900000000000000000001E1C0C080C080E088B
:105DA000061007100320036001C0008009001E00D8
:105DB0000C0000000000000003C001800FF01998E3
:105DC000318C318C318C318C19980FF0018003C0EB
:105DD00000000000000000001E1C0C080618073020
:105DE000036001C001C003600660043008181C3C59
:105DF00000000000000000001E3C0C180C180C18DD
:105E00000C180C180C180C180C180C180C181FFE79
:105E100000020000000000001E3C0C180C180C18BA
:105E20000C180C38067803D8001800180018003C2D
:105E300000000000000000007BDE318C318C318CD2
:105E4000318C318C318C318C318C318C318C7FFEAA
:105E500000000000000000007BDE318C318C318CB2
:105E6000318C318C318C318C318C318C7FFF000145
:105E700000000000000000001F00160006000600E1
:105E8000060007E0073006180618061807300FE06E
:105E900000000000000000003C3C181818181818FA
:105EA00018181F181D9818D818D818D81D983F3CD6
:105EB00000000000000000000F00060006000600C1
:105EC000060007E0073006180618061807300FE02E
:105ED00000000000000000000BE00E300C18080C61
:105EE000000C007C000C000C000C0818063003E0CD
:105EF00000000000000000003CF8198C19061B0689
:105F00001B061F061B061B061B061B06198C3CF8EE
:105F1000000000000000000003FC06180C180C181C
:105F20000C18067803D8031806180C1818183C3CEF
:105F30000000000000000000000000000000000061
:105F40000000000000000000000000000000000051
:105F50000000000000000000000000000000000041
