:020000040800F2
:10000000683B01209D01000885270008F9110008C0
:10001000812700087F080008DB340008000000008A
:10002000000000000000000000000000612900083E
:10003000990B000800000000152800082D2C00086E
:10004000B7010008B7010008B7010008B7010008B0
:10005000B7010008B7010008B7010008B7010008A0
:10006000B7010008B7010008B7010008B701000890
:10007000B7010008B7010008B7010008B701000880
:10008000B7010008B7010008B7010008B701000870
:10009000B7010008B7010008B70100089B0B000872
:1000A000B7010008B7010008B7010008B701000850
:1000B000D92D0008B7010008B7010008B7010008F2
:1000C000B7010008B7010008B7010008B701000830
:1000D000B7010008B7010008B7010008B701000820
:1000E000B7010008B7010008B7010008B701000810
:1000F000B7010008B7010008B7010008B701000800
:10010000B7010008B7010008B7010008B7010008EF
:10011000B7010008E1310008B7010008B701000885
:10012000B7010008B7010008B7010008B7010008CF
:10013000B7010008B7010008B7010008B7010008BF
:10014000B7010008B7010008B7010008B7010008AF
:10015000B7010008B7010008B7010008B70100089F
:10016000B7010008B7010008B7010008B70100088F
:10017000B7010008B7010008B7010008B70100087F
:10018000B7010008B7010008DFF80CD000F03AFB17
:100190000048004791CD0208683B0120064880478F
:1001A00006480047FEE7FEE7FEE7FEE7FEE7FEE75C
:1001B000FEE7FEE7FEE7FEE7FD2C000889010008E8
:1001C0002DE9F05F0546002092469B46884606468C
:1001D000814640241BE0284641464746224600F01F
:1001E0007AFA53465A46C01A914110D3114618461E
:1001F000224600F061FA2D1A67EB01084F462246AD
:100200000120002100F058FA17EB00094E41201E92
:10021000A4F10104DFDC484631462A464346BDE8E6
:10022000F09F10B5431A934209D28318881803E04F
:1002300010F8011D03F8011D521EF9D210BD40EA4D
:1002400001039B0703D009E008C9121F08C0042A54
:10025000FAD203E011F8013B00F8013B521EF9D23B
:1002600010BDD2B201E000F8012B491EFBD270474D
:100270000022F6E710B513460A4604461946FFF772
:10028000F0FF204610BD421C10F8011B0029FBD1D5
:10029000801A704710B5002200E0521C835C8C5C11
:1002A000A34201D1002BF8D1D8B2E1B2401A10BD5F
:1002B000034611F8012B00F8012B002AF9D118464A
:1002C00070472DE9FE4F804681EA0300C00F0C46BF
:1002D000009021F0004123F00045B8EB0200A94155
:1002E00005D24046214690461C460B46024623F066
:1002F0000040104347D0270DC7F30A00C3F30A514B
:100300000290401A019040286BDAC3F3130040F4C6
:10031000801B0098924620B10023D2EB030A63EBC6
:100320000B0B01985946C0F14002504600F0C4F949
:1003300006460D4650465946019A00F0DCF910EB8E
:1003400008006141002487EA115284EAE7731A43E6
:1003500040D0009A62B3019A012A4FEA075215DC95
:10036000001B61EB02014FF0004202EA0752CDE9A7
:100370000042001C41F5801132462B4600F0DCF9AA
:1003800003B0BDE8F08F40462146F9E7001B61EB62
:100390000201001C41F5801300185B412018A2F5F2
:1003A000001747EB030140EAD570B6196D4111E023
:1003B0006D084FEA360645EAC0754FEA0752001B42
:1003C00061EB0201001C41F5801149084FEA300041
:1003D0000019514132462B4603B0BDE8F04F00F002
:1003E0009CB90098012240000023D0EB020263EB8D
:1003F000E073009821464FEAE074B8EB000061EB2F
:100400000401E9E783F000435BE781F0004158E72E
:100410002DE9FE4F81EA030404F0004421F000417D
:1004200000944FF0000B23F0004350EA01045ED02B
:1004300052EA03045BD0C3F30A54C1F30A552C44B7
:10044000A4F2F3340194A0FB0254C1F3130141F46C
:100450008011C3F3130343F4801301FB024400FB38
:10046000034E840A970A44EA815447EA8357A4FB5F
:10047000076802958D0A05FB07854FEA932C04FB5C
:100480000C542705029D4FEA065847EA1637B5EB8C
:1004900008056EEB070C870E920E47EA811742EAB9
:1004A0008312A7FB0201B6EB0B0164EB00042B0DDA
:1004B00043EA0C335E1844EB1C50DA465146E7FB26
:1004C0000201C5F313044FEA0B3343EA14534FEA16
:1004D0000432019C43EA0603A4F10C040294009C3C
:1004E000CDE900B400F028F903B0BDE8F08F00209A
:1004F0000146F9E72DE9F04D81EA030404F0004BD1
:1005000021F0004514464FF0000A23F0004150EA64
:10051000050220D054EA01021DD0C5F30A57024655
:10052000C5F31303C1F31300C1F30A5640F4801559
:1005300043F48013A7EB0608101BD64608F2FD38DB
:1005400073EB050002D308F1010801E092185B414A
:10055000B8F1000F03DA00200146BDE8F08D00205D
:100560004FF48011064684460EE0171B73EB050717
:1005700005D3121B63EB050306434CEA010C490843
:100580004FEA300092185B4150EA0107EDD152EA80
:10059000030012D082EA040083EA0501084305D073
:1005A000101BAB4106D20122002306E000224FF0CF
:1005B000004302E06FF0010253101AEB06004CEB0F
:1005C000085110EB0A0041EB0B01BDE8F04D00F0C3
:1005D000A4B8C1F30A5210B5C1F3130140F2FF33BE
:1005E00041F480119A4201DA002010BD40F23343F9
:1005F0009A42A2F2334203DC524200F06CF810BD82
:10060000904010BD00F0004230F000400AD0C10D13
:1006100001F56071C0F3160042EA0151C2084007BB
:1006200011437047002001467047000030B5041E9A
:1006300071F1000404DB4FF00044404264EB01011F
:10064000141E73F1000405DB1C464FF000435242B8
:1006500063EB04038B4208BF824230BD30B5041EF9
:1006600071F1000404DB4FF00044404264EB0101EF
:10067000141E73F1000405DB1C464FF00043524288
:1006800063EB0403994208BF904230BD30B50B467E
:10069000014600202022012409E021FA02F59D42B2
:1006A00005D303FA02F5491B04FA02F52844151E86
:1006B000A2F10102F1DC30BD202A04DB203A00FA6D
:1006C00002F1002070479140C2F1200320FA03F3A9
:1006D000194390407047202A04DB203A21FA02F0A7
:1006E0000021704721FA02F3D040C2F1200291406C
:1006F000084319467047202A06DBCB17203A41FAF7
:1007000002F043EAE07306E041FA02F3D040C2F19E
:100710002002914008431946704710B5141E73F12A
:10072000000408DA401C41F1000192185B411A43B1
:1007300001D120F0010010BD2DE9F04D92469B46FD
:1007400011B1B1FA81F202E0B0FA80F220329046A3
:10075000FFF7B2FF04460F4640EA0A0041EA0B01E8
:1007600053465A46084313D0114653EA010019D0A4
:10077000C8F140025046FFF7AEFF05460E46504610
:1007800059464246FFF798FF084305D0012004E090
:1007900020463946BDE8F08D0020054346EAE07664
:1007A0002C4337430A986305E40AA0EB08000022B3
:1007B000FD0A44EA47540A3002D500200146E9E721
:1007C000010510196941DDE9084500196941BDE8D5
:1007D000F04DA2E7C1F30A52C1F3130140F2FF3317
:1007E00041F480119A4202DA00200146704740F23B
:1007F00033439A42A2F2334202DC5242FFF76BBF0C
:10080000FFF75ABF064C074D06E0E06840F00103D1
:1008100094E8070098471034AC42F6D3FFF7B8FCD1
:10082000448903086489030870B58C1810F8015BCB
:1008300015F0070301D110F8013B2A1106D110F879
:10084000012B03E010F8016B01F8016B5B1EF9D17D
:100850002B0705D40023521E0DD401F8013BFAE703
:1008600010F8013BCB1A921C03E013F8015B01F86E
:10087000015B521EF9D5A142D8D3002070BD00BF44
:10088000FEE710B5022008F067FB10BD10B5002090
:100890000F4908600F48006820F040400D4908608B
:1008A0000846006840F080400860FFF7EAFF00203B
:1008B0000949C1F8BC02FFF7E4FF012004490860C0
:1008C000FFF7DFFF00200449C1F8A80210BD0000B7
:1008D000A882404200040240008040421CB50D48FE
:1008E000006840F002000B4908600120032100234A
:1008F0000246CDE900108102074800F007FA012006
:10090000032100230246CDE90010C103024800F094
:10091000FDF91CBD303802400004024010B5002033
:100920000F4908600F48006820F040400D490860FA
:100930000846006840F080400860FFF7A2FF0120F1
:100940000949C1F8BC02FFF79CFF01200449086077
:10095000FFF797FF00200449C1F8A80210BD00006E
:10096000A8824042000402400080404270B5054623
:1009700000241548006820F04040134908600846EC
:10098000006808601E2008F0E7FA002612E0002048
:100990000E490860FFF775FF01200D49C1F8A80254
:1009A0006006040E09486C38006808B1601CC4B2C7
:1009B000701CC6B2082EEADB15B9FFF7AFFF01E0E5
:1009C000FFF764FF204670BD00040240A882404249
:1009D0000080404270B504461348006820F0404053
:1009E000114908600846006840F080400860002017
:1009F0000E490860FFF745FF002512E0E0090B49AA
:100A0000143108606006040E01200949C1F8A802EB
:100A1000FFF737FF002005490860FFF732FF681C29
:100A2000C5B2082DEADB70BD00040240A882404236
:100A30000080404210B50F48006820F040400D494A
:100A400008600846006840F08040086001200A49BC
:100A500008600A49C1F8A8021E2008F07DFA0020AB
:100A600005490860FFF70DFF00200449C1F8A802FE
:100A700010BD000000040240BC82404200804042A1
:100A800010B50E48006820F040400C490860084648
:100A9000006840F0804008600120094908601E207D
:100AA00008F05AFA00200749C1F8BC02FFF7E9FE36
:100AB000012003491431086010BD00000004024009
:100AC000A88240420080404210B5002412480068CD
:100AD00020F0404010490860084600680860012086
:100AE0000E4908600E49C1F8A802FFF7CAFE09E0E6
:100AF000601CC4B2FA2C03DDFFF7C2FF012010BD59
:100B0000FFF7BFFE0548803800680028F0D1034990
:100B10001439086000BFF2E700040240BC82404282
:100B200000804042F0B50346002400220021002549
:100B300018488078801D174EF67840EA0622B2F5F4
:100B4000C16F01DD0020F0BD00210AE01148465CC4
:100B50000746481C385C46EA0025601984B2881CA8
:100B600081B2901E8842F1DC0A48465C0746481C68
:100B7000385C46EA0025AC420AD1002104E0054871
:100B8000405C5854481C81B29142F8DB0120DAE7FE
:100B90000020D8E706150020704710B5202000F08F
:100BA0000BF810B1202000F001F810BD01490860D9
:100BB00070470000143C0140014600200022074B12
:100BC0001B6803EA0102054B14331B680B4013B189
:100BD0000AB1012000E0002070470000003C014005
:100BE00030B5CC1000F1200353F824304C07E50E4B
:100BF0000F24AC40A343CD1000F1200444F825306D
:100C0000CC1000F1200353F824304C07E40E02FA14
:100C100004F42343CD1000F1200444F8253030BD06
:100C2000F0B50A4600210023002400BF3DE0012565
:100C300005FA01F3156805EA03049C4234D10568FE
:100C40004F000326BE40B543056015794E00B54000
:100C50000668354305601579012D02D01579022DFE
:100C600016D185684F000326BE40B543856055798F
:100C70004E00B540866835438560456801268E4044
:100C8000B5434560456896798E40B6B235434560B8
:100C9000C5684F000326BE40B543C560D5794E00F8
:100CA000B540C6683543C560491C1029BFD3F0BDA7
:100CB000F0B5002300244D07ED0E02FA05F3CE1027
:100CC00000F1200555F826504E07F70E0F26BE40BE
:100CD000B543CF1000F1200646F82750CE1000F1A2
:100CE000200555F8265045EA0304CE1000F12005F2
:100CF00045F82640F0BD0246002053690B400BB179
:100D0000012000E000207047418370472DE9F04743
:100D10000C46DDE90867002100258C4600BF60E035
:100D20004FF0010808FA01F504EA050CAC4557D16B
:100D3000D0F800804FEA410A4FF0030909FA0AF996
:100D400028EA0908C0F80080D0F800804FEA41097D
:100D500002FA09F948EA0908C0F80080012A01D01E
:100D6000022A27D1D0F808804FEA410A4FF0030940
:100D700009FA0AF928EA0908C0F80880D0F80880BA
:100D80004FEA410906FA09F948EA0908C0F808805B
:100D9000D0F804904FF0010808FA01F829EA080990
:100DA000C0F80490D0F8048003FA01F948EA090871
:100DB000C0F80480D0F80C804FEA410A4FF00309D4
:100DC00009FA0AF928EA0908C0F80C80D0F80C8062
:100DD0004FEA410907FA09F948EA0908C0F80C8006
:100DE000491C10299CD3BDE8F087018370470AB1E4
:100DF000018300E0418370471FB53548006840F02B
:100E0000400033490860012000210B460A46CDE925
:100E1000001001022F48FFF779FF01200321002372
:100E20000246CDE90010C1032A48FFF76FFFFFF724
:100E300055FD0020284908600A2008F083F80120A9
:100E40002649C1F8BC020A2008F07CF80020009076
:100E5000034602464FF4807101901E48FFF756FF8B
:100E6000642008F06FF8042202A948F2401000F054
:100E70003BF800208DF80C0019A102A8FFF70AFA30
:100E800020BB02208DF80800012202A948F2400090
:100E900000F084F9012202A948F2470000F024F88A
:100EA0009DF80800602802DA012000F049F90A20C4
:100EB00008F048F800208DF80800012202A948F245
:100EC000400000F06BF9002004B010BD0020FBE7EB
:100ED0003038024000180240BC0243420000434246
:100EE00039313437000000002DE9F04105460F4646
:100EF0001646FFF79FFD2820FFF76CFDFFF7E4FD86
:100F00002812FFF767FDFFF7DFFDE8B2FFF762FD8C
:100F1000FFF7DAFDFFF78EFD2920FFF75BFDFFF7F6
:100F2000D3FD00240BE0711EA14201D0012100E09D
:100F300000210846FFF71AFD3855601CC4B2B442C0
:100F4000F1DBFFF79DFDBDE8F081000071B583B0D6
:100F50000024002676480078401C75490870084631
:100F600000780A2190FBF1F201FB120018B17048E1
:100F700000780A287EDA012203A948F24E10FFF712
:100F8000B3FF00200190012201A948F24E1000F0A9
:100F900005F99DF80C0000F00F0000286AD09DF8BC
:100FA0000C0000F00F000628E4DA9DF80C0000F0B9
:100FB0000F01FF208840C0B201905E4890F8205099
:100FC0009DF80400C043C0B240F0C000594981F808
:100FD0002000084681898182C18AC18300244CE0B7
:100FE000544890F820000121A140084020B3524904
:100FF00031F81400042202A9FFF776FF4D4890F85B
:10100000300000F00100C0B19DF808009DF8091003
:1010100000EB012081B24748163020F814109DF8EB
:101020000A009DF80B1000EB0120C0F5487081B25A
:1010300040480C3020F814101BE09DF808009DF883
:10104000091000EB01203D490988081A81B239488E
:101050000C3020F814109DF80A009DF80B1000EBDE
:10106000012036494988081A81B23248163020F8E2
:10107000141000E031E0601CC4B2052CB0DB012686
:101080002C4880892D490988884205DC2948C08A76
:101090002A49498888421DDD9DF80C0000F00F00A8
:1010A00001280ADD2348C089224988810846008B2F
:1010B000C88200201E4908700FE01E48808A1D4922
:1010C00088810846C08BC88280200390084680F83B
:1010D000205002E00020164908709DF80C0000F036
:1010E0008F00802819D1134890F8200000F080006C
:1010F00038B1104890F8200020F080000D4981F8A8
:1011000020004FF6FF700B498881C882084690F88E
:10111000200000F0E00081F8200005480078F02869
:1011200002DD0A2002490870304604B070BD00009C
:10113000900000209400002092420308F814002040
:1011400038B50546002400208DF800008DF80150C8
:1011500000BF09E09DF800000F49095D0844C0B2D6
:101160008DF80000601CC4B2B82CF3D39DF80000C9
:10117000C043401CC0B28DF80000B822064948F2B6
:10118000470000F00BF80222694648F2FF0000F029
:1011900005F8002038BD0000DA4103082DE9F041D0
:1011A00004460E4617464FF00008FFF743FC282080
:1011B000FFF710FCFFF788FC2012FFF70BFCFFF78E
:1011C00083FCE0B2FFF706FCFFF77EFC00250BE096
:1011D000705DFFF7FFFBFFF777FC8046B8F1000F6B
:1011E00000D003E0681CC5B2BD42F1DB00BFFFF7D1
:1011F00047FC4046BDE8F08100BFFEE71CB5012179
:10120000202001F009FB4FF4E060009000208DF8F1
:10121000040003208DF8050001208DF807006946C1
:101220000148FFF7FDFC1CBD0014024070B50446E8
:10123000002609480588408845430021084601F0FA
:101240000FFA01F051FA00BF02E004480480761C56
:10125000AE42FAD370BD0000F81400200010006CFC
:101260002DE9F84F07460D4690469946DDF828B01F
:10127000A8EB0700401C1FFA80FAA9EB0500401CF0
:1012800080B20090002414E0281981B2384601F0A1
:10129000E7F901F029FA002607E004FB0A603BF8B1
:1012A000100006490880701C86B25645F5DB601CAC
:1012B00084B200988442E7DBBDE8F88F0010006C30
:1012C00010B504460CBB002021498871F02008802D
:1012D0004FF4A07048800846808845F2105188423B
:1012E0000FD14FF430501A4908814FF428504881EB
:1012F0004FF42C5088814FF4F07008804FF4487000
:101300004880032001F010F920E001201049887185
:101310004FF4A0700880F02048800846808845F28D
:10132000105188420FD14FF43050094908814FF4D1
:10133000285048814FF42C5088814FF44870088021
:101340004FF4F0704880062001F0EEF810BD000068
:10135000F81400201CB5FE48006840F07800FC49F5
:1013600008600846006840F002000860084600680F
:1013700040F001000860F6480830006840F00100C5
:10138000F349083108600120032100230222CDE93E
:1013900000104CF23371EF48FFF7B8FC0120032135
:1013A00000230222CDE900104FF68071EA48FFF7D2
:1013B000ADFC0120032100230222CDE900101146DB
:1013C000E648FFF7A3FC0120032100230222CDE918
:1013D00000100103E148FFF799FC012003210023DD
:1013E0000246CDE900104102DD48FFF78FFC0120E5
:1013F000DC4908600C220021D648FFF7F1FB0C22E3
:101400000121D448FFF7ECFB0C220421D148FFF75F
:10141000E7FB0C220521CF48FFF7E2FB0C22082155
:10142000CC48FFF7DDFB0C220921CA48FFF7D8FBA7
:101430000C220A21C748FFF7D3FB0C220E21C54816
:10144000FFF7CEFB0C220F21C248FFF7C9FB0C228D
:101450000721C148FFF7C4FB0C220821BE48FFF753
:10146000BFFB0C220921BC48FFF7BAFB0C220A2162
:10147000B948FFF7B5FB0C220B21B748FFF7B0FBCB
:101480000C221146B448FFF7ABFB0C220D21B248E9
:10149000FFF7A6FB0C220E21AF48FFF7A1FB0C22A1
:1014A0000F21AD48FFF79CFB0C220121AB48FFF751
:1014B00097FB0C221146A948FFF792FB00204FF042
:1014C00020418861C861C1F81C010846806940F468
:1014D000805088610846806940F4804088610846F1
:1014E000806940F0100088610846C069C8610846FC
:1014F000C06940F00F00C8610846C06940F47050F0
:10150000C86199480068C1F81C010846D0F81C0160
:1015100040F00900C1F81C010846D0F81C0140F455
:101520000060C1F81C010846806940F00100886134
:10153000322007F007FD4FF45A4001F0C9F800F0DF
:10154000E9FF8A4988804FF45B4001F0C1F800F060
:10155000E1FF86498880084680884FF6FF7101EADE
:101560000020824988804FF45C4001F0B1F800F01F
:10157000D1FF7E49898808437C4988800846808855
:10158000B0F5004F02D145F210508880774880882E
:1015900045F2105188421CD17348006820F00F00BA
:1015A0004FF02041C1F81C010846D0F81C0120F47E
:1015B0007060C1F81C010846D0F81C0140F003001F
:1015C000C1F81C010846D0F81C0140F40070C1F8B5
:1015D0001C016648808845F2105188427ED1552111
:1015E0004FF4704001F08AF8AA214FF2010001F097
:1015F00085F852214FF2020001F080F808214FF2E5
:10160000030001F07BF801214FF2040001F076F8AD
:101610000D214FF4304001F071F80D214BF2010023
:1016200001F06CF80D214BF2020001F067F8342153
:101630004FF4364001F062F834214BF2016001F0C2
:101640005DF834214BF2026001F058F80D214FF49F
:10165000314001F053F80D214BF2011001F04EF82A
:101660000D214BF2021001F049F834214FF43740BC
:1016700001F044F834214BF2017001F03FF83421BD
:101680004BF2027001F03AF800214FF4324001F0C1
:1016900035F800214BF2012001F030F800214BF227
:1016A000022001F02BF824214FF4384001F026F8F5
:1016B00024214BF6010001F021F824214BF6020011
:1016C00001F01CF801214FF43F4001F017F80F2101
:1016D0004FF4334001F012F80F2100E0FEE34BF22B
:1016E000013001F00BF80F214BF2023001F006F847
:1016F00034214FF4394001F001F834214BF6011048
:1017000000F0FCFF34214BF6021000F0F7FF082137
:101710004FF4354000F0F2FF08214BF2015000F089
:10172000EDFF08214BF2025000F0E8FF03214FF4D7
:10173000424000F0E3FF24214FF43A4000F0DEFF86
:1017400024214BF6012000F0D9FF242110E00000F5
:1017500030380240000C02400010024000180240E5
:1017600000000240A40240421C0100A0F814002026
:101770004BF6022000F0C2FF00214FF43C4000F085
:10178000BDFF78214BF6014000F0B8FF00214BF679
:10179000024000F0B3FF00214FF43D4000F0AEFFE7
:1017A00078214BF6015000F0A9FF00214BF60250C2
:1017B00000F0A4FF00214FF43E4000F09FFF6421A1
:1017C0004BF6016000F09AFF00214FF4514000F009
:1017D00095FF33214DF2011000F090FF00214DF2F2
:1017E000021000F08BFF34214DF2031000F086FF51
:1017F00000214DF2041000F081FF3A214DF2051056
:1018000000F07CFF00214DF2061000F077FF4A2126
:101810004DF2071000F072FF00214DF2081000F0A9
:101820006DFF5C214DF2091000F068FF00214DF2C0
:101830000A1000F063FF81214DF20B1000F05EFFF3
:1018400000214DF20C1000F059FFA6214DF20D10B1
:1018500000F054FF00214DF20E1000F04FFFE52183
:101860004DF20F1000F04AFF01214DF2101000F070
:1018700045FF13214DF2111000F040FF01214DF200
:10188000121000F03BFF54214DF2131000F036FF10
:1018900001214DF2141000F031FF82214DF215109C
:1018A00000F02CFF01214DF2161000F027FFCA2195
:1018B0004DF2171000F022FF02214DF2181000F037
:1018C0001DFF00214DF2191000F018FF02214DF20A
:1018D0001A1000F013FF01214DF21B1000F00EFF53
:1018E00002214DF21C1000F009FF34214DF21D10B1
:1018F00000F004FF02214DF21E1000F0FFFE6721F0
:101900004DF21F1000F0FAFE02214DF2201000F0FF
:10191000F5FE84214DF2211000F0F0FE02214DF27F
:10192000221000F0EBFEA4214DF2231000F0E6FEA1
:1019300002214DF2241000F0E1FEB7214DF22510F6
:1019400000F0DCFE02214DF2261000F0D7FECF2180
:101950004DF2271000F0D2FE02214DF2281000F0C7
:10196000CDFEDE214DF2291000F0C8FE02214DF21D
:101970002A1000F0C3FEF2214DF22B1000F0BEFE43
:1019800002214DF22C1000F0B9FEFE214DF22D1077
:1019900000F0B4FE03214DF22E1000F0AFFE102136
:1019A0004DF22F1000F0AAFE03214DF2301000F08E
:1019B000A5FE33214DF2311000F0A0FE03214DF2BF
:1019C000321000F09BFE6D214DF2331000F096FEB8
:1019D00000214FF4524000F091FE33214DF20120DE
:1019E00000F08CFE00214DF2022000F087FE342131
:1019F0004DF2032000F082FE00214DF2042000F0A1
:101A00007DFE3A214DF2052000F078FE00214DF2D6
:101A1000062000F073FE4A214DF2072000F06EFE12
:101A200000214DF2082000F069FE5C214DF20920F2
:101A300000F064FE00214DF20A2000F05FFE8121DB
:101A40004DF20B2000F05AFE00214DF20C2000F068
:101A500055FEA6214DF20D2000F050FE00214DF262
:101A60000E2000F04BFEE5214DF20F2000F046FE67
:101A700001214DF2102000F041FE13214DF2112002
:101A800000F03CFE01214DF2122000F037FE5421FF
:101A90004DF2132000F032FE01214DF2142000F02F
:101AA0002DFE82214DF2152000F028FE01214DF27D
:101AB000162000F023FECA214DF2172000F01EFE72
:101AC00002214DF2182000F019FE00214DF21920DC
:101AD00000F014FE02214DF21A2000F00FFE012149
:101AE0004DF21B2000F00AFE02214DF21C2000F0F6
:101AF00005FE34214DF21D2000F000FE02214DF2C2
:101B00001E2000F0FBFD67214DF21F2000F0F6FDC6
:101B100002214DF2202000F0F1FD84214DF2212020
:101B200000F0ECFD02214DF2222000F0E7FDA4219F
:101B30004DF2232000F0E2FD02214DF2242000F0BE
:101B4000DDFDB7214DF2252000F0D8FD02214DF238
:101B5000262000F0D3FDCF214DF2272000F0CEFD4E
:101B600002214DF2282000F0C9FDDE214DF229208E
:101B700000F0C4FD02214DF22A2000F0BFFDF22149
:101B80004DF22B2000F0BAFD02214DF22C2000F086
:101B9000B5FDFE214DF22D2000F0B0FD03214DF2E8
:101BA0002E2000F0ABFD10214DF22F2000F0A6FDFD
:101BB00003214DF2302000F0A1FD33214DF2312000
:101BC00000F09CFD03214DF2322000F097FD6D21C5
:101BD0004DF2332000F092FD00214FF4534000F00D
:101BE0008DFD33214DF2013000F088FD00214DF2D2
:101BF000023000F083FD34214DF2033000F07EFD11
:101C000000214DF2043000F079FD3A214DF205300B
:101C100000F074FD00214DF2063000F06FFD4A2106
:101C20004DF2073000F06AFD00214DF2083000F05F
:101C300065FD5C214DF2093000F060FD00214DF2A0
:101C40000A3000F05BFD81214DF20B3000F056FDB3
:101C500000214DF20C3000F051FDA6214DF20D3067
:101C600000F04CFD00214DF20E3000F047FDE52163
:101C70004DF20F3000F042FD01214DF2103000F026
:101C80003DFD13214DF2113000F038FD01214DF2E0
:101C9000123000F033FD54214DF2133000F02EFDD0
:101CA00001214DF2143000F029FD82214DF2153052
:101CB00000F024FD01214DF2163000F01FFDCA2175
:101CC0004DF2173000F01AFD02214DF2183000F0ED
:101CD00015FD00214DF2193000F010FD02214DF2EA
:101CE0001A3000F00BFD01214DF21B3000F006FD13
:101CF00002214DF21C3000F001FD34214DF21D3067
:101D000000F0FCFC02214DF21E3000F0F7FC6721D0
:101D10004DF21F3000F0F2FC02214DF2203000F0B5
:101D2000EDFC84214DF2213000F0E8FC02214DF25F
:101D3000223000F0E3FCA4214DF2233000F0DEFC61
:101D400002214DF2243000F0D9FCB7214DF22530AC
:101D500000F0D4FC02214DF2263000F0CFFCCF2160
:101D60004DF2273000F0CAFC02214DF2283000F07D
:101D7000C5FCDE214DF2293000F0C0FC02214DF2FD
:101D80002A3000F0BBFCF2214DF22B3000F0B6FC03
:101D900002214DF22C3000F0B1FCFE214DF22D302D
:101DA00000F0ACFC03214DF22E3000F0A7FC102116
:101DB0004DF22F3000F0A2FC03214DF2303000F044
:101DC0009DFC33214DF2313000F098FC03214DF29F
:101DD000323000F093FC6D214DF2333000F08EFC78
:101DE00000214FF4544000F089FC33214DF20140B2
:101DF00000F084FC00214DF2024000F07FFC342111
:101E00004DF2034000F07AFC00214DF2044000F056
:101E100075FC3A214DF2054000F070FC00214DF2B6
:101E2000064000F06BFC4A214DF2074000F066FCD2
:101E300000214DF2084000F061FC5C214DF20940A8
:101E400000F05CFC00214DF20A4000F057FC8121BB
:101E50004DF20B4000F052FC00214DF20C4000F01E
:101E60004DFCA6214DF20D4000F048FC00214DF242
:101E70000E4000F043FCE5214DF20F4000F03EFC27
:101E800001214DF2104000F039FC13214DF21140B8
:101E900000F034FC01214DF2124000F02FFC5421DF
:101EA0004DF2134000F02AFC01214DF2144000F0E5
:101EB00025FC82214DF2154000F020FC01214DF25D
:101EC000164000F01BFCCA214DF2174000F016FC32
:101ED00002214DF2184000F011FC00E011E3002156
:101EE0004DF2194000F00AFC02214DF21A4000F0B8
:101EF00005FC01214DF21B4000F000FC02214DF2D7
:101F00001C4000F0FBFB34214DF21D4000F0F6FBBD
:101F100002214DF21E4000F0F1FB67214DF21F40FF
:101F200000F0ECFB02214DF2204000F0E7FB8421A1
:101F30004DF2214000F0E2FB02214DF2224000F080
:101F4000DDFBA4214DF2234000F0D8FB02214DF22D
:101F5000244000F0D3FBB7214DF2254000F0CEFB2A
:101F600002214DF2264000F0C9FBCF214DF227405F
:101F700000F0C4FB02214DF2284000F0BFFBDE213F
:101F80004DF2294000F0BAFB02214DF22A4000F048
:101F9000B5FBF2214DF22B4000F0B0FB02214DF2D7
:101FA0002C4000F0ABFBFE214DF22D4000F0A6FBD3
:101FB00003214DF22E4000F0A1FB10214DF22F40E5
:101FC00000F09CFB03214DF2304000F097FB3321E1
:101FD0004DF2314000F092FB03214DF2324000F00F
:101FE0008DFB6D214DF2334000F088FB00214FF452
:101FF000554000F083FB33214DF2015000F07EFB91
:1020000000214DF2025000F079FB34214DF20350D3
:1020100000F074FB00214DF2045000F06FFB3A21F8
:102020004DF2055000F06AFB00214DF2065000F021
:1020300065FB4A214DF2075000F060FB00214DF294
:10204000085000F05BFB5C214DF2095000F056FB9C
:1020500000214DF20A5000F051FB81214DF20B504E
:1020600000F04CFB00214DF20C5000F047FBA62184
:102070004DF20D5000F042FB00214DF20E5000F0E9
:102080003DFBE5214DF20F5000F038FB01214DF2F0
:10209000105000F033FB13214DF2115000F02EFBD5
:1020A00001214DF2125000F029FB54214DF2135042
:1020B00000F024FB01214DF2145000F01FFB82219F
:1020C0004DF2155000F01AFB01214DF2165000F0B0
:1020D00015FBCA214DF2175000F010FB02214DF202
:1020E000185000F00BFB00214DF2195000F006FBD8
:1020F00002214DF21A5000F001FB01214DF21B505C
:1021000000F0FCFA02214DF21C5000F0F7FA3421E5
:102110004DF21D5000F0F2FA02214DF21E5000F077
:10212000EDFA67214DF21F5000F0E8FA02214DF25E
:10213000205000F0E3FA84214DF2215000F0DEFA45
:1021400002214DF2225000F0D9FAA4214DF2235081
:1021500000F0D4FA02214DF2245000F0CFFAB7215A
:102160004DF2255000F0CAFA02214DF2265000F03F
:10217000C5FACF214DF2275000F0C0FA02214DF2EE
:10218000285000F0BBFADE214DF2295000F0B6FADB
:1021900002214DF22A5000F0B1FAF2214DF22B50FB
:1021A00000F0ACFA02214DF22C5000F0A7FAFE210B
:1021B0004DF22D5000F0A2FA03214DF22E5000F006
:1021C0009DFA10214DF22F5000F098FA03214DF2A4
:1021D000305000F093FA33214DF2315000F08EFA76
:1021E00003214DF2325000F089FA6D214DF2335047
:1021F00000F084FA00214FF4564000F07FFA3321BA
:102200004DF2016000F07AFA00214DF2026000F018
:1022100075FA34214DF2036000F070FA00214DF29E
:10222000046000F06BFA3A214DF2056000F066FAA6
:1022300000214DF2066000F061FA4A214DF207607C
:1022400000F05CFA00214DF2086000F057FA5C21C2
:102250004DF2096000F052FA00214DF20A6000F0E0
:102260004DFA81214DF20B6000F048FA00214DF249
:102270000C6000F043FAA6214DF20D6000F03EFA2A
:1022800000214DF20E6000F039FAE5214DF20F60A9
:1022900000F034FA01214DF2106000F02FFA132102
:1022A0004DF2116000F02AFA01214DF2126000F0A7
:1022B00025FA54214DF2136000F020FA01214DF26D
:1022C000146000F01BFA82214DF2156000F016FA3E
:1022D00001214DF2166000F011FACA214DF217608B
:1022E00000F00CFA02214DF2186000F007FA00210C
:1022F0004DF2196000F002FA02214DF21A6000F06E
:10230000FDF901214DF21B6000F0F8F902214DF2B8
:102310001C6000F0F3F934214DF21D6000F0EEF97D
:1023200002214DF21E6000F0E9F967214DF21F60B5
:1023300000F0E4F902214DF2206000F0DFF9842181
:102340004DF2216000F0DAF902214DF2226000F036
:10235000D5F9A4214DF2236000F0D0F902214DF20D
:10236000246000F0CBF9B7214DF2256000F0C6F9EA
:1023700002214DF2266000F0C1F9CF214DF2276015
:1023800000F0BCF902214DF2286000F0B7F9DE211F
:102390004DF2296000F0B2F902214DF22A6000F0FE
:1023A000ADF9F2214DF22B6000F0A8F902214DF2B7
:1023B0002C6000F0A3F9FE214DF22D6000F09EF993
:1023C00003214DF22E6000F099F910214DF22F609B
:1023D00000F094F903214DF2306000F08FF93321C1
:1023E0004DF2316000F08AF903214DF2326000F0C5
:1023F00085F96D214DF2336000F080F955214FF4DD
:10240000704000F07BF9AA214FF2010000F076F94C
:1024100052214FF2020000F071F908214FF203003F
:1024200000F06CF900214FF2040000F067F9CC21B4
:102430004FF4314000F062F900214BF2011000F03E
:102440005DF905214FF4364000F058F970214FF442
:10245000374000F053F970214BF2017000F04EF953
:1024600001214FF4384000F049F903214BF60100F7
:1024700000F044F903214BF6020000F03FF903217C
:102480004BF6030000F03AF902214FF43C4000F013
:1024900035F900214BF6014000F030F900214BF6F0
:1024A000024000F02BF9D0214FF4494000F026F90A
:1024B00002214CF6011000F021F950214CF60210D7
:1024C00000F01CF950214CF6031000F017F95021D0
:1024D0004CF6041000F012F900214FF4545000F0B3
:1024E0000DF955214FF4685000F008F94FF4885069
:1024F00000F0EEF8782006F02FFD4FF4245000F0A5
:10250000E7F80120FEF7DCFE4FF6FF70FEF78EFEC7
:102510001CBD000008B5034800880090BDF800000D
:1025200008BD00000010006C70B5054600240026B0
:102530004A48808845F2105188427CD1082D1CD22F
:10254000DFE805F00406090C0F12151800BF14E0AF
:1025500044F0800411E044F040040EE044F0C00474
:102560000BE044F0200408E044F0600405E044F08F
:10257000A00402E044F0E00400BF00BF37488088B8
:1025800045F21051884201D14FF4585633488088A3
:1025900045F21051884201D044F0080421463046EB
:1025A00000F0ACF82D48808845F21051884253D194
:1025B0002A49488900F08CF8002000F07DF827496E
:1025C0004989491C88B200F083F8002000F074F8B3
:1025D00022494989891C88B200F07AF81F49098884
:1025E000491EC1F30F2000F067F81C494989C91C36
:1025F00088B200F06DF819490978491EC8B200F098
:102600005BF81649888900F063F8002000F054F860
:1026100012498989491C88B200F05AF8002000F05C
:102620004BF80E498989891C88B200F051F80B4992
:102630004988491E00E00FE0C1F30F2000F03CF88C
:1026400006498989C91C88B200F042F80349897893
:10265000491EC8B200F030F870BD0000F814002028
:1026600010B502460C461348808845F21051884246
:102670001FD11049488900F02BF8101200F01CF807
:102680000C494989491C88B200F022F8D0B200F008
:1026900013F80849888900F01BF8201200F00CF8A4
:1026A00004498989491C88B200F012F8E0B200F0B0
:1026B00003F810BDF814002001B5BDF8000000902B
:1026C000BDF800000149088008BD00000010006C42
:1026D00001B5BDF800000090BDF800000149088078
:1026E00008BD0000FE0F006C024800890249088006
:1026F00070470000F8140020FE0F006C024A1080A2
:10270000921C118070470000FE0F006C1CB5012167
:10271000202000F081F8FF20009001208DF80400B7
:1027200000208DF8060003208DF8050000208DF8AC
:10273000070069461148FEF773FA01210F48FEF7BA
:1027400054FB02210D48FEF750FB04210B48FEF715
:102750004CFB08210948FEF748FB10210748FEF70B
:1027600044FB20210548FEF740FB40210348FEF7CB
:102770003CFB80210148FEF738FB1CBD00140240E1
:1027800000BFFEE77047000070B5002100230F2254
:10279000C4781CB3174C246804F4E064C4F5E06406
:1027A000C4F30721C1F10404E3B20A4144789C4018
:1027B000E1B28478144021430C07210E0E4C0578B9
:1027C0006155047804F01F050124AC4005786D11B3
:1027D000AD0005F1E025C5F8004109E0047804F0FA
:1027E0001F050124AC40054D0678761145F82640BA
:1027F00070BD00000CED00E000E400E080E100E0CE
:1028000002490143024A1160704700000000FA05C6
:102810000CED00E07047000029B1064A126802433F
:10282000044B1A6004E0034A12688243014B1A60A9
:10283000704700003038024029B1064A126802434E
:10284000044B1A6004E0034A12688243014B1A6089
:10285000704700004038024029B1064A126802431E
:10286000044B1A6004E0034A12688243014B1A6069
:102870007047000044380240F0B5002100220024D7
:10288000022500260223324F3F6807F00C0121B1D8
:10289000042905D0082937D105E02E4F076036E01E
:1028A0002D4F076033E02A4F3F1F3F68C7F3805624
:1028B000274F3F1F3F6807F03F036EB1264FB7FB1E
:1028C000F3F7DFF88CC0ACF1040CDCF800C0CCF3FB
:1028D000881C07FB0CF40CE01E4FB7FBF3F7DFF886
:1028E00070C0ACF1040CDCF800C0CCF3881C07FB12
:1028F0000CF4174F3F1F3F68C7F301477F1C7D0053
:10290000B4FBF5F7076002E0124F076000BF00BF9D
:102910000F4F3F6807F0F0010909104F7A5C076814
:10292000D74047600A4F3F6807F4E051890A0B4FD0
:102930007A5C4768D7408760054F3F6807F460417D
:10294000490B064F7A5C4768D740C760F0BD00006E
:10295000083802400024F40040787D017C0000200B
:102960007047000000B595B001210846FFF774FFDD
:1029700001210846FFF750FF012208215548FEF7C4
:1029800097F94FF48070139002208DF850000320C7
:102990008DF8510000208DF8520001208DF8530071
:1029A00013A94C48FEF73CF944F61F601190A7208C
:1029B000ADF840000020ADF84800ADF842008DF8B9
:1029C0004A0010A9444800F0BFFA7020ADF82C006E
:1029D0000120ADF82E000220ADF838000020ADF83F
:1029E0003800ADF83C004FF4FA700D900BA93A484E
:1029F00000F060FA0821384800F09AFA01213648C0
:102A000000F014FA0121344800F01FFA0121324885
:102A100000F027FA01214804FFF71EFF01210220E0
:102A2000FFF7FAFE032208212C48FEF741F94FF484
:102A30008070099002208DF8280003208DF829006D
:102A400000208DF82A0001208DF82B0009A92348C9
:102A5000FEF7E6F844F61F600790A720ADF81800CF
:102A60000020ADF82000ADF81A008DF8220006A96C
:102A70001B4800F069FA7020ADF804000120ADF8A1
:102A800006000220ADF810000020ADF81000ADF8EF
:102A900014004FF4FA70039001A9114800F00AFAEB
:102AA00008210F4800F044FA01210D4800F0BEF95A
:102AB00001210B4800F0C9F90121094800F0D1F9C2
:102AC0002D21002000F00EF80021012000F00AF86E
:102AD00015B000BD000002400000014000040240AB
:102AE0000044014070B505460C4640F2DC567DB905
:102AF0005A2C01DD5A2402E0002C00DA00240B20BD
:102B000000FB046086B231460B4800F01AFA12E06E
:102B1000012D10D12D2C01DD2D2402E0002C00DA36
:102B20000024C4F12D000B2101FB006086B2314668
:102B3000024800F006FA70BD000001400044014068
:102B40000CB50020019000903448006840F48030BB
:102B50003249086000BF3148006800F4003000903E
:102B60000198401C0190009818B90198B0F5A06F29
:102B7000F1D12A48006800F4003010B10120009023
:102B800001E0002000900098012846D12348403001
:102B9000006840F0805021494031086020480068BA
:102BA00040F480401E4908601C48083000681B49FA
:102BB000083108600846006840F400400860084694
:102BC000006840F4A05008601648091F0860081FFC
:102BD000006840F08070091F086000BF0F4800685F
:102BE00000F000700028F9D040F205600E4908603E
:102BF0000A480830006820F00300084908310860DE
:102C00000846006840F00200086000BF0348083032
:102C1000006800F00C000828F8D10CBD0038024014
:102C20000070004019544007003C024010B50120DC
:102C300029F030FA14480068401C1349086008461F
:102C40000068B0F5FA7F0FD10020086008210F4816
:102C5000FEF751F808B9012000E0002004462246A2
:102C600008210A48FEF7C3F80948007A48B1084825
:102C7000007A401E064908720846007A08B9012009
:102C8000487200F0CDF910BD74000020001402401D
:102C9000EC14002030B5164800684FF47A72B0FB8F
:102CA000F2F1B1F1807F01D301201DE021F07F40DE
:102CB000401E4FF0E022506150170F22002807DA23
:102CC00013071D0E0B4B00F00F04241F1D5503E0CE
:102CD00013071C0E084B1C5400BF00204FF0E022CD
:102CE000906107201061002008B100BFFEE730BDF1
:102CF0000000002018ED00E000E400E010B51548E9
:102D0000006840F47000134908601348006840F000
:102D100001001149086000200F49083108600E4881
:102D200000680E4908400C4908600D48091D0860FC
:102D3000081F006820F48020091F08600020064951
:102D40000C310860FFF7FCFE4FF00060014980394C
:102D5000086010BD88ED00E000380240FFFFF6FE7D
:102D6000103000241FB54FF4C060FFF749FD1C2050
:102D70008DF8000002208DF8010001208DF802007E
:102D80008DF803006846FFF7FFFC01210846FFF7B6
:102D900053FD42F20F70029042F2CF00ADF80400F2
:102DA0000020ADF80C00ADF8060001A94FF08040FE
:102DB00000F0CAF80121880700F038F801218807DF
:102DC00000F040F801221146900700F06AF8012156
:102DD000880700F03AF81FBD10B50121880700F000
:102DE0004FF8E8B10121880700F02CF80D48006881
:102DF000401C0C49086008460068B0F5FA7F0FD106
:102E00000020086001210848FDF775FF08B901207E
:102E100000E000200446224601210348FDF7E7FFB9
:102E200010BD0000780000200014024021B102888B
:102E300042F08002028004E002884FF67F731A405D
:102E400002807047CA430282704721B1028842F073
:102E50000102028004E002884FF6FE731A400280ED
:102E6000704731B1B0F8442042F40042A0F8442049
:102E700005E0B0F84420C2F30E02A0F844207047E9
:102E800030B50246002000230024158A05EA01031C
:102E9000958905EA010413B10CB1012000E000207E
:102EA00030BD1AB183890B43838102E083898B4350
:102EB0008381704770B5002400220023058C4FF6F3
:102EC000FE7635400584028C8388048B4FF68F751F
:102ED0002C40B51E2C400D882C43751E2A408D8930
:102EE0002A434D882A43104DA84202D00F4DA842D4
:102EF00013D14FF6F7752A40CD892A434FF6FB755B
:102F00002A408D882A434FF6FF652B404FF6FF5528
:102F10002B400D8A2B434D8A2B43838004838D687D
:102F20004563028470BD00000000014000040140C0
:102F30000A460021018B4FF6F773194011430183B4
:102F4000704741637047000000220288184B984286
:102F50000ED0184B98420BD0B0F1804F08D0164BD2
:102F6000984205D0154B984202D0154B984204D197
:102F70004FF68F731A404B881A43124B984207D072
:102F8000114B984204D04FF6FF431A400B891A4365
:102F900002804B68C3620B880385054B984202D0C0
:102FA000044B984201D18B7A0386012383827047B8
:102FB00000000140000401400004004000080040FF
:102FC000000C0040001000400014004010B51148F3
:102FD000808845F2105188421AD1FDF70DFF10B9D3
:102FE0000D480E4948600D4890F8300040F08000D0
:102FF0000A4981F83000084690F83000054989797F
:1030000001F001010843054981F83000002010BD9E
:103010000120FCE7F81400204D0F00089400002068
:103020000448006820B103480068401E0149086058
:10303000704700008C00002000B587B000202849B0
:103040004872486008722748086001210420FFF791
:10305000E3FB01218804FFF7EFFB02208DF8180045
:1030600000208DF81A0001208DF81B0000208DF83B
:1030700019004FF40060059005A91B48FDF7D0FD2D
:103080004FF48060059005A91748FDF7C9FD072298
:103090000A211548FDF70CFE07220B211248FDF707
:1030A00007FE4FF4E13001900020ADF80800ADF8C4
:1030B0000A00ADF80C00ADF810000C20ADF80E00C1
:1030C00001A90A4800F09AF90121084800F03BF9EB
:1030D000012240F22551054800F06BF907B000BD10
:1030E000D4140020A00D0020000802400048004039
:1030F00010B588B004460020344948724860087210
:103100003348086001210C20FFF786FB01210805E8
:10311000FFF792FB4FF48050069002208DF81C00C0
:1031200000208DF81D008DF81E0001208DF81F0075
:1031300006A92848FDF774FD0420069002208DF8AA
:103140001C0001208DF81F0006A92348FDF768FD2B
:1031500008220C211F48FDF7ABFD082202211E4862
:10316000FDF7A6FD02940020ADF80C00ADF80E00AE
:10317000ADF810000C20ADF812000020ADF81400DE
:1031800002A9164800F03AF90121144800F0DBF8D2
:10319000012240F22551114800F00BF94FF4A060D4
:1031A000FFF72EFB35208DF8040000208DF8050078
:1031B00001208DF806008DF8070001A8FFF7E4FA5A
:1031C0000121064800F0BFF808B010BDEC14002043
:1031D000CC0E002000080240000C024000500040CD
:1031E00010B540F22551494800F0B9F800287DD0CB
:1031F00040F22551454800F097F8444800F068F93E
:1032000043490968424A526888544148406830B18D
:10321000012813D0022820D003283CD12CE03C48C0
:10322000006800785A2803D000203949486004E03B
:1032300037484068401C3649486065E034480068BB
:1032400040785A2803D000203149486004E03048D3
:103250004068401C2E49486056E02D480068807840
:10326000022803D000202A49486004E0284840682A
:10327000401C2749486047E025480068C078062878
:1032800003D000202249486004E021484068401CE7
:103290001F49486038E01E484068401C1C4948608F
:1032A00008464068B0F5C16F2DD11A480078A0B12A
:1032B000002005E016490968095C174A1154401CB2
:1032C000B0F5C16FF6DB1548007830B11248001D2B
:1032D00030F07AFC00201149087001200C49487236
:1032E0000F4908700A4840680E4900E00DE009687F
:1032F000884204D9064840680A49086000E000BFD7
:1033000000200349486000BF00BF10BD00500040CE
:10331000EC140020C900002006150020CA0000207F
:10332000C80000207000002010B50022002340F6E5
:103330006A14A14200D100BF0A1201249440A3B232
:10334000DC43048010BD21B1828942F400528281A5
:1033500004E082894DF6FF731A408281704770B590
:103360000246002400230025002040F66A16B142E0
:1033700000D100BFC1F3421501F01F03012606FA78
:1033800003F3012D02D19689334006E0022D02D1CC
:10339000168A334001E0968A33400C12012606FA61
:1033A00004F41688344013B10CB1012000E0002071
:1033B00070BDF0B50346002400260025002040F62D
:1033C0006A17B94200D100BF1846C1F3421401F098
:1033D0001F06012707FA06F5012C01D10C3004E085
:1033E000022C01D1103000E014301AB107682F43CD
:1033F000076002E00768AF430760F0BD2DE9FF47B3
:1034000005460E460024A14600BFA046B08900B183
:1034100000BF2C8A24F44054F08804432C82AC89E9
:1034200041F20C608443B0883189084371890843B4
:103430000443AC81AC8A24F44074B0890443AC8268
:103440006846FFF719FA2048854202D01F48854296
:1034500002D1DDF80C9001E0DDF80890A88900F4B5
:10346000004040B109EBC90000EB09103168490088
:10347000B0FBF1F707E009EBC90000EB0910316878
:103480008900B0FBF1F76420B7FBF0F004012009DC
:10349000642101FB1078A88900F4004040B132207B
:1034A00000EBC800B0FBF1F000F00700044308E0B7
:1034B000322000EB08106421B0FBF1F000F00F00A7
:1034C00004432C81BDE8FF87001001400014014037
:1034D00001468888C0F30800704700BFFEE700007F
:1034E0000FB4084B10B504A902AA039801F0CAFF53
:1034F000044602A9002002F05CFB204610BC5DF8E7
:1035000014FB0000B35B000802E008C8121F08C1EA
:10351000002AFAD170477047002001E001C1121F54
:10352000002AFBD1704770B50446002508E02168E9
:10353000481C20600878303805EB850100EB410518
:103540002168087800F0B6F80028F0D1284670BD50
:103550002DE9FF5FDDE90220010DDDF838B00243FF
:1035600018D044F61050A1F2FF3141430D140F98CA
:10357000012820D0A5EB0B00401C5FEA000A4FF0A9
:103580000004474EDFF81C91A046504616D5CAF1FC
:10359000000728E00F98012443A2012808D0002149
:1035A00000980F9BC0E90021C0E90243BDE8FF9FDE
:1035B0006FEA0B01F4E7CBF10000DEE7074612E00B
:1035C000F80707D02246334640464946FCF720FF1D
:1035D000804689462246334610461946FCF718FFB6
:1035E00004460E467F10002FEAD1DDE90201BAF150
:1035F000000F42464B4602DAFCF70AFF01E0FCF7F7
:1036000079FF04460E460022284BFDF727F803D821
:103610004FF0FF30014607E00022254B204631469F
:10362000FCF74FFEFDF7D6F8102409E0002C0ADB6A
:103630000A220023FCF7C4FD019B30321A55641E98
:1036400050EA0102F2D1641C019AC4F1110314443E
:103650000F9A012A03D0012208430DD10AE0084342
:1036600004D000204FF0110B0F9080E7A3EB0B0567
:103670006D1E0DE05B4504DD4FF0000205F1010514
:1036800004E003DA4FF00002A5F10105002AECD0B6
:1036900000980F99C0E90231C0E9004586E70000B3
:1036A000000024400000F03F300000000000F04324
:1036B0000000E03F0146302903DB392901DC01200D
:1036C00070470020FCE7000010B54421074801F0D6
:1036D0002AF800221E21064828F044FD054908600A
:1036E00002F0B0FF00200449087010BD9867002068
:1036F0002567000878020020740200202DE9F04FB1
:1037000087B007460C4615462946204600F066F964
:1037100020B94FF0FF3007B0BDE8F08F00222946F6
:10372000204600F0FDF808B10020F4E7002620460E
:1037300013F069FF401E00B20490204613F0D4FE3F
:10374000401E00B2039068886188401A0FFA80FA20
:10375000BAF1000F16DD2088ADF814006088ADF8CE
:103760001600A088ADF818006088504400B2ADF88B
:103770001A003046711C4EB207EBC000059901607B
:1037800006994160E8886188411A0398401A0FFA47
:1037900080FBBBF1000F1CDDB5F90600B4F9061083
:1037A000884216DA2088ADF81400E888ADF81600D3
:1037B000A088ADF81800E888584400B2ADF81A00A7
:1037C0003046711C4EB207EBC000059901600699A6
:1037D0004160B5F90200B4F90210884202DDB5F982
:1037E000020001E0B4F902008046B5F90600B4F920
:1037F0000610884202DAB5F9060001E0B4F90600C5
:1038000002900298A0EB08000FFA80F9288821881E
:10381000401A00B20190019800281BDDB9F1000F99
:1038200018DD2088ADF81400ADF8168021880198C5
:10383000084400B2ADF8180008EB090000B2ADF87A
:103840001A003046711C4EB207EBC00005990160AA
:1038500006994160A8882188411A0498401A00B24C
:1038600000900098002818DDA888ADF81400ADF885
:103870001680A9880098084400B2ADF8180008EB3B
:10388000090000B2ADF81A003046711C4EB207EBC9
:10389000C000059901600699416030463BE730B5AC
:1038A0000346B1F90040B2F90050AC4202DDB1F973
:1038B000004001E0B2F900401C80B1F90240B2F9C9
:1038C0000250AC4202DDB1F9024001E0B2F902401F
:1038D0005C80B1F90440B2F90450AC4202DAB1F9AB
:1038E000044001E0B2F904409C80B1F90640B2F90D
:1038F0000650AC4202DAB1F9064001E0B2F90640E6
:10390000DC800120B3F90040B3F90450AC4205DC7F
:10391000B3F90240B3F90650AC4200DD002030BDDF
:10392000F8B504460D4616460027B4F90000B5F96F
:103930000010884212DBB4F90200B5F90210884287
:103940000CDBB4F90400B5F90410884206DCB4F9C4
:103950000600B5F90610884200DC01270FB90020E7
:10396000F8BD0EB90120FBE72088ADF800006088A3
:10397000ADF8020032466946284600F0A7F808B9BB
:103980000020EDE7A088ADF800006088ADF80200E7
:1039900032466946284600F099F808B90020DFE76A
:1039A0002088ADF80000E088ADF802003246694694
:1039B000284600F08BF808B90020D1E7A088ADF8C0
:1039C0000000E088ADF8020032466946284600F063
:1039D0007DF808B90020C3E70120C1E70246B2F92B
:1039E0000000B1F90430984213DCB2F90400B1F9D7
:1039F000003098420DDBB2F90200B1F9063098426E
:103A000007DCB2F90600B1F90230984201DB01206F
:103A100070470020FCE7F8B504460D461646B4F999
:103A20000400B5F90010884211DBB4F90600B5F9BD
:103A3000021088420BDBB4F90000B5F9041088428B
:103A400005DCB4F90200B5F90610884201DD012059
:103A5000F8BD0EB90020FBE72088ADF800006088B3
:103A6000ADF8020032466946284600F02FF808B14A
:103A70000020EDE7A088ADF800006088ADF80200F6
:103A800032466946284600F021F808B10020DFE7F9
:103A90002088ADF80000E088ADF8020032466946A3
:103AA000284600F013F808B10020D1E7A088ADF84F
:103AB0000000E088ADF8020032466946284600F072
:103AC00005F808B10020C3E70120C1E72DE9FC5F3C
:103AD00005460E4614464FF0000AB6F90000B5F947
:103AE0000010884213DBB6F90000B5F904108842D3
:103AF0000DDCB6F90200B5F90210884207DBB6F911
:103B00000200B5F90610884201DC4FF0010ABAF153
:103B1000000F02D10020BDE8FC9F002C01DC012039
:103B2000F9E7284613F06FFD834600EBDB70471082
:103B3000284613F0D9FC834600EBDB704FEA60089F
:103B4000474501DA384600E0404681464C4500DDF5
:103B50004C462888ADF800002888204400B2ADF813
:103B600004006888ADF802006888204400B2ADF80F
:103B70000600002231466846FFF7A8FF80B1BDF875
:103B80000400204400B2ADF80400BDF80600204453
:103B900000B2ADF806003146684625F08BF8BAE76A
:103BA000E888001B00B2ADF80200E888ADF8060016
:103BB000002231466846FFF789FF80B1BDF8040056
:103BC000204400B2ADF80400BDF80200001B00B2B2
:103BD000ADF802003146684625F06CF89BE7A888EE
:103BE000001B00B2ADF80000A888ADF80400002268
:103BF00031466846FFF76AFF80B1BDF80000001B40
:103C000000B2ADF80000BDF80200001B00B2ADF834
:103C100002003146684625F04DF87CE76888ADF82B
:103C200002006888204400B2ADF806000022314648
:103C30006846FFF74BFF80B1BDF80000001B00B2E3
:103C4000ADF80000BDF80600204400B2ADF8060053
:103C50003146684625F02EF85DE701205BE710B598
:103C6000B1F90030B2F90040A34202DAB1F90030F4
:103C700001E0B2F900300380B1F90230B2F902403C
:103C8000A34202DAB1F9023001E0B2F90230438016
:103C9000B1F90430B2F90440A34202DDB1F90430B5
:103CA00001E0B2F904308380B1F90630B2F9064080
:103CB000A34202DDB1F9063001E0B2F90630C3805B
:103CC00010BD0000F8B5054628F0D4F907460020DD
:103CD000009035B14C49E8680860284628F05AFB46
:103CE00003E016F0CBFC48490860474909680869B9
:103CF00024F074FE44480068406920B142490968D4
:103D0000486924F06BFE40490968C86924F066FEE2
:103D10003D490968086A24F061FE3B480068006973
:103D200038B9002038490968A1F8500100BF00BF28
:103D3000F8BD25F089F82BF0CDFA2AF005FF3248BE
:103D40000068B0F85001002856D02F48006800687D
:103D5000007C00F0010040B32B4800680068C06898
:103D6000406810B3002419E02748006800F59870F7
:103D7000005D00B110E02448006800F5AC7000F070
:103D800034FD064620480068303000EBC40001686E
:103D900031604068706000BF601C84B21A480068DF
:103DA000B0F85001A042DFDC00BF4FF4807116482C
:103DB000006830301EF06EFE20211348006800F5C8
:103DC00098701EF067FE00200F490968A1F85001A5
:103DD000384628F041F900900B4800680068406AB6
:103DE00050B10949096808680749096809684B6AB8
:103DF00006490A68009998471EF0C4FB00F03EF897
:103E000000F006F800BF93E7300100202C010020ED
:103E100010B5002416E0C4EBC4000C4951F8200092
:103E200030B1C4EBC401094A52F821001EF05CFC19
:103E3000C4EBC401054A02EB81001C211EF02AFEDE
:103E4000601CC4B2042CE6DB10BD000074680020C6
:103E50000146094A10680BE042688A4202D00268B3
:103E60008A4204D1027E22F00102521C027640698D
:103E70000028F1D1704700000401002070470000C5
:103E800010B50421014800F04EFC10BD8C670020E5
:103E900010B52021014800F046FC10BDA4670020A9
:103EA0002DE9FF4704460D4616461F46DDE90C89FD
:103EB0006FB9B8F5807F0AD1002020806080681E2D
:103EC00000B2A080701E00B2E080BDE8FF87002035
:103ED0000090019002900390ADF80450ADF80A6094
:103EE000ADF80C50ADF80E604B4642463946684678
:103EF00024F016FE4B464246394601A824F010FE37
:103F00004B464246394602A824F00AFE4B4642463A
:103F1000394603A824F004FEBDF90000BDF90410E1
:103F2000884202DABDF9000001E0BDF90400BDF9E4
:103F30000810BDF90C20914202DABDF9081001E029
:103F4000BDF90C1088420BDABDF90000BDF9041070
:103F5000884202DABDF900000DE0BDF904000AE074
:103F6000BDF90800BDF90C10884202DABDF908005D
:103F700001E0BDF90C00801E00B22080BDF90000F8
:103F8000BDF90410884202DDBDF9000001E0BDF971
:103F90000400BDF90810BDF90C20914202DDBDF905
:103FA000081001E0BDF90C1088420BDDBDF90000DE
:103FB000BDF90410884202DDBDF900000DE0BDF935
:103FC00004000AE0BDF90800BDF90C10884202DDCA
:103FD000BDF9080001E0BDF90C00801C00B2A08012
:103FE000BDF90210BDF90600814202DABDF90200F6
:103FF00001E0BDF90600BDF90A20BDF90E108A42A4
:1040000002DABDF90A1001E0BDF90E1088420BDAA0
:10401000BDF90210BDF90600814202DABDF90200C5
:104020000DE0BDF906000AE0BDF90A10BDF90E0069
:10403000814202DABDF90A0001E0BDF90E00801EDE
:1040400000B26080BDF90210BDF90600814202DDB8
:10405000BDF9020001E0BDF90600BDF90A20BDF975
:104060000E108A4202DDBDF90A1001E0BDF90E1002
:1040700088420BDDBDF90210BDF90600814202DD68
:10408000BDF902000DE0BDF906000AE0BDF90A1015
:10409000BDF90E00814202DDBDF90A0001E0BDF963
:1040A0000E00801C00B2E08000BF0EE72DE9F74350
:1040B000054616460024134C27F0DCFF80463346A5
:1040C00029462046019A1BF0ABFE07465FB900BFA8
:1040D00000BF2C2120461EF0DDFC4FF00040A06206
:1040E0000020BDE8FE830020A062E06918B94046C8
:1040F00027F0B2FFE061E06908B90120E0612046E5
:10410000EFE70000C867002010B51421114800F047
:104110000AFB1BF037FE044600BF1CB900BF00BFFE
:1041200000BFFEE700BF14B900BF00BF10BD0A49C1
:1041300020461BF00FFF094920461BF00DFF0849E0
:1041400020461BF00BFF074920461BF001FF00BF74
:10415000ECE70000B067002035F5010809FA010816
:1041600091FC0108FDF4010870B504460D461021CC
:1041700028461EF08FFC20680078012804D1A08A10
:104180002880E08A68800CE020680078022802D14C
:10419000E068686005E020680078042801D10A2002
:1041A00068602068406820B12068294642689047CE
:1041B00001E000BF00BF70BD2DE9FE4F0446A08A9C
:1041C00018B9E08A08B9BDE8FE8FE66A96B92046BC
:1041D0000DF0B6FC064606B9F5E7204610F046FF9E
:1041E0000022092130461AF0EFF96078C0F3400050
:1041F00000B1E8E700274FF48078B14616E00021CF
:10420000484622F079F8384407B20021484622F0A7
:10421000AFF88246C0170AEB1060001200FB08F0EE
:104220000FFA80F8484620F0FDFB8146B9F1000FF7
:10423000E5D117B9B8F5807F11D0784207B24FF4B5
:10424000803090FBF8F00FFA80F8002000906B4669
:104250004246394604F1140024F062FC00BF0020FD
:104260000290019094F8400000F00F00032812D152
:10427000304620F0F5FC8246304620F079FC83463B
:1042800003200090B4F9141053465A4630460CF0FF
:104290004BFF029012E0304620F064FD824630462B
:1042A00020F0D8FB83460C200090B4F916105B4632
:1042B000524630460CF038FF019000BF304620F0E7
:1042C00029FC054605F0010028B9BDF908000028C1
:1042D00001DD0020029005F0020028B9BDF90800B8
:1042E000002801DA0020029005F0040028B9BDF989
:1042F0000400002801DD0020019005F0080028B925
:10430000BDF90400002801DA0020019001AA02A9E9
:1043100020462BF057FCBDF90420BDF908103046AB
:1043200000F0FCFA6078C0F3400000B14BE7208B4E
:10433000BDF80810084401B22183608BBDF8041059
:10434000084401B2618300BF3DE72DE9F84F044600
:10435000D4F82CB0BBF1000F01D1BDE8F88F94F870
:10436000400000F00F0000B9F7E71CF025F9064601
:104370003068477E4021584622F0B4F910B9002138
:10438000E183A183584620F0D9FC8046584620F0AE
:10439000DFFC054694F8400000F00F000C2843D1E4
:1043A0000021A1831DBBB4F91E00C7F1640148437D
:1043B000642190FBF1F001B2E183584620F04AFB02
:1043C0008146584620F0CEFC82460C200090B4F97D
:1043D0001E104B46524658460CF0A6FEE083B4F938
:1043E0001E2000231946584623F028FD69E0204688
:1043F0002BF03FFC00900021E1836A4620462BF021
:10440000E1FBBDF9003041F6FF72514258460DF014
:1044100089FD8146BDF80000484402B20123002115
:10442000584623F00BFD4CE094F8400000F00F00DC
:10443000032846D10021E183B8F1000F23D1B4F95C
:104440001C00C7F164014843642190FBF1F001B204
:10445000A183584620F08CFB8146584620F000FC92
:10446000824603200090B4F91C1053464A46584631
:104470000CF05AFEA083B4F91C1000231A465846CB
:1044800023F0DCFC1DE020462BF0D8FB009000213F
:10449000A1830022694620462BF094FBBDF9003031
:1044A00041F6FF72514258460DF0A2FC8146BDF81C
:1044B0000000484401B201230022584623F0BEFC0C
:1044C00000BFA08B002860D1E08B00285DD11DBB10
:1044D000584620F047FC8146584620F0BBFA8246F9
:1044E000B9F1000F02DCBAF1000F14DDB9F1000FD1
:1044F00006DA01234A460021584623F09FFC0AE0D1
:10450000BAF1000F07DA0123CAF1000002B200215C
:10451000584623F093FC00BFB8F1000F23D1584652
:1045200020F026FB8146584620F09AFB8246B9F1DE
:10453000000F02DCBAF1000F14DDB9F1000F06DA4A
:10454000012300224946584623F078FC0AE0BAF1DC
:10455000000F07DA01230022CAF1000001B2584619
:1045600023F06CFC00BF32460A2158461AF02CF8A2
:104570006078C0F3400000B1EFE694F8400020F00E
:104580000F0184F840100021E16200BFE5E62DE94B
:10459000FF4104460F4614B916F070F804460CB9F2
:1045A000BDE8FF81204616F002F900B9F8E794F85B
:1045B0002800C0F3800010B100BF00BFF0E71FB9B2
:1045C0000020A4F85001EBE70020ADF80800ADF89A
:1045D0000A00204616F06AF8401E00B2ADF80C0042
:1045E000204616F0C9F8401E00B2ADF80E0002AA2F
:1045F00039466846FFF753F9064606B9D0E7206802
:10460000007CC0F3400060B10298206303986063AF
:104610000120A4F85001606810B1606827F0C6FE60
:10462000BEE72068806918B12068694682699047B2
:1046300000250BE004F1300000EBC50100226846C4
:10464000FFF76EF900B1ABE7681C85B2B4F8500112
:10465000A842EFDCB4F85001202809DAB4F8502160
:1046600004F1300101EBC200694612F0A4FE0BE038
:104670000020A4F85001B4F8502104F1300101EBFE
:10468000C20002A912F097FEB4F85001401CA4F831
:104690005001606810B1606827F088FE00BF7FE7B6
:1046A00070B50546284600F013F8044600260CE0D5
:1046B0002146284600F024F806462146284600F008
:1046C000C0F820461EF010F83446002CF0D170BD22
:1046D000014609B9002070474868FCE770B50646F6
:1046E00000243046FFF7F4FF054605E0641C294628
:1046F000304600F005F80546002DF7D1204670BD84
:1047000002460B461068001D0344186870470246B5
:104710000B461068034418687047014609B9002029
:1047200070478868FCE7002242608260CA1C22F061
:1047300003010160704770B50446216801F108006B
:104740001DF0F4FE0546A5B100222946204629F0B9
:10475000C5FC29462046626829F0B2FC606820B199
:104760002A462046616829F0B9FC6560A06800B956
:10477000A560284670BD2DE9F04106460D4606B1FC
:1047800015B90020BDE8F0813046FFF7A1FFA8422F
:1047900006D13046FFF7CFFF044624BB0020F1E7E7
:1047A000316801F108001DF0C1FE04460CB900207B
:1047B000E8E729463046FFF7AAFF07462246394672
:1047C000304629F07DFC3A462146304629F086FCE9
:1047D00022462946304629F081FC2A4621463046A9
:1047E00029F06EFC00BF2046CCE770B50446216876
:1047F00001F108001DF09AFE0546A5B100222946E8
:10480000204629F05DFC29462046A26829F066FC76
:10481000A06820B12A462046A16829F051FCA56075
:10482000606800B96560284670BD014609B901207D
:104830007047486818B9886808B90120F8E700206F
:10484000F6E72DE9F04104460D460CB9BDE8F081CC
:104850002046FFF73DFFA8420FD129462046FFF72B
:104860004FFF6060606810B90020A0602FE0002258
:104870002046616829F032FC29E02046FFF74DFF11
:10488000A8420FD129462046FFF741FFA060A0684B
:1048900010B9002060601AE000222046A16829F0CB
:1048A0000FFC14E029462046FFF731FF0646294653
:1048B0002046FFF725FF07463A463146204629F0B5
:1048C000FFFB32463946204629F008FC00BF00BFF6
:1048D000BCE710B504462068806818B120682146FE
:1048E000826890472068006828B1206800682060CE
:1048F0002046FFF7EEFF10BD0146886818B18868B2
:10490000B0F9160070470020FCE70146886818B12E
:104910008868807E800970470020FCE72DE9F0411F
:1049200004460D4616461DB916B90120BDE8F081B2
:1049300020461EF0C3FFA068008A284400B2A16888
:104940000882A068408A304401B2A06841820123F5
:1049500032462946204622F061FB00220B212046E8
:1049600019F032FE0746012F01D03846DEE7204617
:1049700022F07CFA0120D9E7F7B582B004460E4652
:1049800014B9049805B0F0BD00BF6222314620463C
:1049900021F038FB0190019D00BFBDB12868A8B18E
:1049A00000BF63223146204621F02CFB0190019884
:1049B000C0B207464FB13A462B682846049998473B
:1049C0000190BDF80400ADF8100000BF0498D9E7CD
:1049D0002DE9F04F95B004468B4691469A461E9DB0
:1049E000608C20F0080008306084A4F820902A89A8
:1049F0005946204621F006FB1490A4F820A02A89ED
:104A00005946204621F0FEFA1390608C20F00800F1
:104A10006084DDE9131088420CD1DDE9131088426F
:104A200008D1BDF85000BDF84C10884202D115B035
:104A3000BDE8F08FA4F820902A895946204621F03D
:104A4000E1FA1490A4F820A0594620460FF05AF835
:104A500012902989129A1068149A25F0B5FF2889B6
:104A60000B2833D147F6FF711498884202D013986F
:104A700088422BD1204621F0D8FD009000EBD07069
:104A8000471020461FF07EFF009000EBD0704FEAE9
:104A9000600847F6FF711498884208D1781C08F125
:104AA0000101884200DA01E008F10100149047F6A4
:104AB000FF711398884208D1781C08F101018842DF
:104AC00000DA01E008F10100139000BF2348FFF76E
:104AD00032FE064600BF1EB900BF00BF00BFFEE7A2
:104AE00000BF06B9A3E71498F060139830613460F2
:104AF0002889B080C6F808B001A811F0F5FC31464D
:104B000001A811F0CFFD164901A811F094FD154838
:104B1000039000BF144901A811F09BFDFF22002162
:104B200001A811F0ADFD298801A811F09BFD69884D
:104B300001A811F079FDE868089000BF01A80021E4
:104B400090F8422061F3000280F8422000BF2869FB
:104B5000079001A811F0BEFD00BF68E7BC67002008
:104B6000FD350308A5380308D537030810B514210F
:104B70000148FFF7D8FD10BDBC6700202DE9FE4FAE
:104B800004460F4690464FF0000900254CE1E068CE
:104B900000EBC5004068C0F3406000B143E1E1684C
:104BA00001EBC501496821F07F4023F0DDFE064698
:104BB00026EA070008B9012000E00020029026EA5A
:104BC000080008B9012000E000200190DDE90101A2
:104BD000814270D0E06850F835A04FF0000B6A4673
:104BE0001021504625F0C8FA10B14FF0010B98E0A3
:104BF0006A461121504625F0BFFA10B14FF0010B63
:104C00008FE06A461221504625F0B6FA10B14FF0F7
:104C1000010B86E06A461321504625F0ADFA10B12B
:104C20004FF0010B7DE06A461521504625F0A4FAAD
:104C300010B14FF0010B74E06A461421504625F084
:104C40009BFA10B14FF0010B6BE06A460A21504607
:104C500025F092FA10B14FF0010B62E06A466B2129
:104C6000504625F089FA10B14FF0010B59E06A4621
:104C70006C21504625F080FA10B14FF0010B50E046
:104C80006A460121504625F077FA10B14FF0010B2A
:104C900047E06A460421504625F06EFA10B14FF005
:104CA000010B3EE06A460221504625F065FA18B134
:104CB0004FF0010B35E0B5E06A460321504625F080
:104CC0005BFA10B14FF0010B2BE06A46052150460C
:104CD00025F052FA10B14FF0010B22E06A4606218E
:104CE000504625F049FA10B14FF0010B19E06A4621
:104CF0003221504625F040FA10B14FF0010B10E080
:104D00006A466E21504625F037FA10B14FF0010B7C
:104D100007E06A466D21504625F02EFA08B14FF0A3
:104D2000010BBBF1000F02D00320BDE8FE8F6A46E5
:104D30006921504625F020FA10B14FF0020970E0C9
:104D40006A466A21504625F017FA10B14FF0020961
:104D500067E06A466E21504625F00EFA10B14FF01A
:104D600002095EE06A466D21504625F005FA10B151
:104D70004FF0020955E06A463721504625F0FCF90C
:104D800010B14FF002094CE06A463821504625F038
:104D9000F3F910B14FF0020943E06A46352150465D
:104DA00025F0EAF910B14FF002093AE06A464021D5
:104DB000504625F0E1F910B14FF0020931E06A46A2
:104DC0004521504625F0D8F910B14FF0020928E0EE
:104DD0006A464121504625F0CFF910B14FF0020943
:104DE0001FE06A464221504625F0C6F910B14FF047
:104DF000020916E06A464321504625F0BDF910B17C
:104E00004FF002090DE06A464921504625F0B4F9F9
:104E100010B14FF0020904E0B9F1000F01D14FF0D9
:104E2000010900BF00BF6D1C608CC0F30510A842D3
:104E30003FF6ADAE484678E701480068704700008D
:104E40003001002070470146C1F30412072A00DD3B
:104E50000722D0B27047000001464FF6FF70814232
:104E600001D11F20704709B90020FBE7712902DA40
:104E70000948405CF6E7A1F1710081B2074800687B
:104E800038B107480068814203D204480068405C9A
:104E9000E8E70020E6E700003C8203089C020020CF
:104EA000B002002010B518210348FFF73CFC012098
:104EB00027F094F910BD0000686700202DE9F0414B
:104EC00005460F4616460DB9BDE8F0812846FBF7AA
:104ED000DAF98046394628460A4A1268904707465A
:104EE000E8193146074A1268904706463C4603E0F7
:104EF000A019285C2855641CA8EB0600A042F7D234
:104F000000BFE1E7E00200202DE9F04106460C4633
:104F100017461D4629463046084A126890472060C9
:104F2000206830B1296888190021044A1268904726
:104F300000E000203860BDE8F0810000D8020020C9
:104F40002DE9F04F87B004460F4692469846DDE9BA
:104F500010560DB1002028801CB9002007B0BDE814
:104F6000F08F207808B90020F8E70FB90020F5E7A6
:104F70004FF0000906F0020010B906F0040098B1E5
:104F8000002000E0401C215C0A2905D0215C0D298D
:104F900002D0215C0029F5D1215C01B1401C15B182
:104FA0004FF0FF312980D9E706F0020008B141F641
:104FB000FF7800200690059038E0002004900598C6
:104FC00008B9012000E0002006A904AACDE900628A
:104FD000CDE902100599601843465246394627F03C
:104FE00065FB83460498A8EB00000FFA80F804984C
:104FF00048440FFA80F9BBF1000F00D11CE005987E
:105000005844059020780A2802D020780D2800D135
:1050100012E00598205C0A2803D00598205C0D2832
:1050200003D10598401C059006E000BF0598205C60
:1050300010B1B8F1000FC0DC00BF059870B905A928
:105040002046094A12689047834635B100225946E6
:10505000384619F03DFC0FFA80F900BF0DB1A5F8F4
:10506000009005987AE70000D80200202DE9F0476B
:1050700006468846174606B10FB9BDE8F0873046A8
:10508000FBF701F981463846FBF7FDF8044604B901
:10509000F3E704EB090A414630460B4A1268904791
:1050A0008046554603E0281B305C70556D1E08EBAA
:1050B0000400A842F7D906EB0800224639461DF045
:1050C000A3FC00BFD9E70000E00200200246002058
:1050D0000FA31B788B4211D113781BB901231370D6
:1050E00001200BE01378012B02D10023137005E09F
:1050F0001378022B02D10023137001201378012BA7
:1051000004D1202901D1022313700120704700002F
:105110002300000073B582B0064603980190324622
:1051200000210846019B27F0E1FD05460020019083
:105130000024681C1DF0FAF9044600BF1CB900BF2A
:1051400000BF00BFFEE700BF14B9002004B070BD6F
:10515000002060553246691C2046039B27F0C6FD9F
:105160002046F3E72DE9F04781460E4614461F46D8
:10517000DDF820A035461BE0600800FB07552946F6
:105180004846D047B0F1000809DD04F0010080F086
:105190000100C0EB5404E8190546064608E0B8F1E2
:1051A000000F02DA6408354602E02846BDE8F087C1
:1051B000002CE1D10020F9E72DE9FF4F85B08346AF
:1051C000DDE9158ADDE91349DDE91775129E05F061
:1051D0000200F8B94FB105F0010030B1B9F1000F8C
:1051E00002D105F00C0000B17F1E03E03022204602
:1051F000641C3254544501D2202CF7D303E03022F2
:105200002046641C325405F0010018B1BC4201D2A2
:10521000202CF4D305F01000B0B305F4806050B931
:105220004CB1544501D0BC4205D1641E1CB1B8F14B
:10523000100F00D1641EB8F1100F09D105F0200045
:1052400030B9202C04D278222046641C325415E058
:10525000B8F1100F09D105F0200030B1202C04D294
:1052600058222046641C325408E0B8F1020F05D1E0
:10527000202C03D262222046641C3254202C03D2FC
:1052800030222046641C3254202C16D2B9F1000F73
:1052900004D02D222046641C32540EE005F0040098
:1052A00020B12B222046641C325406E005F0080091
:1052B00018B120222046641C3254CDE90275CDE994
:1052C0000064584606A90EC900F0A2F809B0BDE86E
:1052D000F08F2DE9FF4F8FB08046DDE91FABDDE990
:1052E0001D96219D1C9C00270CB925F0100505F486
:1052F000806000B1E4B100BFB4FBF6F106FB1141E0
:10530000C8B20A2802DA00F1300107E005F02001F6
:1053100009B1412100E0612101440A39CBB239468B
:105320007F1C07AA5354B4FBF6F40CB1202FE3D32F
:1053300007A8CDE904AB8DE88102039606954046A7
:1053400010A90EC9FFF738FF13B0BDE8F08F2DE9A3
:10535000FF4F8FB0DDE9217BDDF89080209EDDE9F5
:105360001C454FF00009002184EA01006940084310
:1053700001D128F0100808F4806028B1002184EAE7
:105380000100694008432DD000BF32463B4620460D
:105390002946FAF715FF02F0FF0ABAF10A0F02DAFE
:1053A0000AF1300007E008F0200008B1412000E0D9
:1053B000612050440A38C2B2484609F1010907A9E0
:1053C0000A5432463B4620462946FAF7F9FE04467F
:1053D0000D46002184EA01006940084302D0B9F17A
:1053E000200FD2D32398CDE9036BCDE9050807A997
:1053F0001E98CDE9001902900FA80FC8FFF7DCFE38
:1054000013B0BDE8F08F9A4200D2885470477047BD
:105410002DE9FF5F05461446DDE90EA6DDE910879C
:10542000A34607F0020078B907F0010060B9B14661
:1054300007E02246641C2020039B0199A84709F13C
:105440000109C145F5D300BF08E02246641C711E66
:105450000E461AF80100039B0199A847002EF4D1CB
:1054600007F0020050B105E02246641C2020039B97
:105470000199A847A4EB0B004045F5D3204604B0A2
:10548000BDE8F09F2DE9FF4F95B09B468946064643
:1054900000250FE2252877D100242746F84A01216C
:1054A000059400E0044316F8013F203B01FA03F0A5
:1054B0001042F7D130782A2811D06FF02F033078BE
:1054C000A0F13002092A16D8059A44F0020402EB32
:1054D000820203EB42021044761C0590EFE759F874
:1054E000042B0592002A03DA504244F4005405903C
:1054F00044F00204761C30782E2816D116F8010FDD
:1055000044F004042A280DD06FF02F023078A0F167
:105510003003092B09D807EB870302EB4303C718B5
:10552000761CF3E759F8047B761C30786C280FD092
:1055300006DC4C2817D068280DD06A2814D104E066
:10554000742810D07A280FD10DE044F400140AE03A
:1055500044F4801401E044F440147278824202D191
:1055600004F58014761C761C307866280BD013DC8A
:10557000582877D009DC002875D04528F6D0462871
:10558000F4D047281AD19DE118E0632835D064286B
:1055900079D0652812D195E1702873D008DC67288E
:1055A000F1D069286FD06E280DD06F2806D1B5E0F4
:1055B00073282CD0752875D0782874D05A4617993E
:1055C00090476D1C75E1C4F30250022809D00328EE
:1055D0000DD0D9F8001004280DD00D6009F1040990
:1055E00067E1D9F80010EA17C1E90052F6E7D9F8E7
:1055F00000100D80F2E70D70F0E719F8041B8DF82C
:10560000001000208DF80100EA46012003E059F85F
:1056100004AB4FF0FF3061074FF0000102D40DE002
:1056200008F101018846B9420FDA8045F8DB1AF823
:1056300008100029F4D108E008F1010188468142F0
:10564000FADB1AF808100029F6D105985B46A0EBA2
:10565000080721463846179A00F094FA284400EBD0
:10566000080507E04DE029E10DE01AF8010B5A4664
:1056700017999047B8F10108F7D25B4621463846A2
:10568000179A13E142E00A220092C4F302524FF04B
:10569000000A022A08D059F804CB032A4FEAEC7119
:1056A0000AD00DE029E02AE009F1070121F0070204
:1056B000F2E802C1914609E00FFA8CFC4FEAEC7166
:1056C000042A03D14FFA8CFC4FEAEC71002907DA67
:1056D0000A460021DCF1000C61EB02012D2202E000
:1056E000220504D52B228DF80420012203E0E207D5
:1056F00001D02022F7E7904659E00A2102E010226B
:105700000DE010214FF0000A00910BE010224FF045
:10571000000A44F004040827009203E008224FF036
:10572000000A0092C4F30252022A05D059F804CBB1
:105730000021032A08D009E009F1070121F007023E
:10574000F2E802C1914605E01FFA8CFC042A01D15F
:105750000CF0FF0C4FF00008220728D5702806D067
:10576000009B83F0100353EA0A0305D00EE04022A9
:105770008DF80420012208E05CEA010206D0302204
:105780008DF804208DF8050002229046009B83F0DE
:10579000080353EA0A030AD15CEA010201D1620755
:1057A00005D530228DF804204FF001087F1E5828BF
:1057B00004D034A003900EA802900DE036A0F9E7C3
:1057C00053466046009AFAF7FBFC84460398825CD5
:1057D0000298401E029002705CEA0100F0D102982B
:1057E00006A9081A00F1200A600702D524F48034C3
:1057F00000E00127574502DDA7EB0A0000E000208A
:1058000000EB0A01009005984144401A0590E0031E
:1058100006D45B462146179A059800F0B3F9054473
:10582000002706E001A85A46C05D179990476D1CF5
:105830007F1C4745F6DBE0030CD55B462146179AF3
:10584000059800F09FF9054404E030205A46179966
:1058500090476D1C0099481E00900029F5DC08E077
:10586000029802995A460078491C0291179990476C
:105870006D1CBAF10001AAF1010AF1DC65E100003A
:105880000928010030313233343536373839616216
:1058900063646566000000003031323334353637DA
:1058A00038394142434445460000000000F058F9B1
:1058B0000544761C307800287FF4ECAD19B02846FA
:1058C000BDE8F08F620700D4062709F1070222F035
:1058D000070CFCE80223E14603F000485FEA080CED
:1058E00002D00FF2702C0DE05FEA045C02D50FF2DB
:1058F000682C07E05FEAC47C02D00FF2602C01E064
:10590000AFF2700C4FF0FF3823F00043CDF850C0D9
:1059100065280CD006DC452809D046281DD047282C
:105920003DD13DE0662818D067287ED138E00021BF
:10593000112F01DB112000E0781CCDE9000106A940
:105940000EA8FDF705FEDDE90F010E9A0391002177
:10595000009207F1010A04914DE04FF000400097DA
:10596000CDE9011006A90EA8FDF7F2FDDDE90F0251
:1059700003920E9B11990022DDF80CA00093049273
:1059800011B9791C00EB010AB7EB0A0004D4C0F18D
:10599000FF3007F1010A0490AAEB0700019044E0F0
:1059A000012F00DA01270021112F01DD112000E075
:1059B0003846CDE9000106A90EA8FDF7C9FDDDE9CD
:1059C0000F010E9A0391002104910092BA4621071B
:1059D0000CD40399514500DA8A46BAF1010F05DD6E
:1059E000009AAAF10101515C302908D0B84202DACC
:1059F00010F1040F06DA0121CDE9011015E0AAF13A
:105A00000101E9E7002805DC049901440491AAEBAF
:105A1000000102E0411C514500DD8A460499401A0C
:105A2000401C01904FF000400290200704D40198E0
:105A3000504501DBCDF8048000208DF84F0002981E
:105A40000DF14F07B0F1004F25D02B200E9002989A
:105A50004FF0020800280CDA404202902D200E90F0
:105A600007E00A210298FAF711FE3031029007F898
:105A7000011DB8F10001A8F10108F2DC029800282C
:105A8000EFD1791E0E980870307800F0200040F0B9
:105A9000450007F8020D12A8C01B00F10708149872
:105AA000007800B1012000EB0A01019801EBE071E0
:105AB00005984144401A401E0590E00306D45B4619
:105AC0002146179A059800F05DF80544149800786F
:105AD00018B15A46179990476D1CE00324D55B46D0
